{
  "_format": "hh-sol-artifact-1",
  "contractName": "Cinema",
  "sourceName": "contracts/Cinema.sol",
  "abi": [
    {
      "inputs": [],
      "stateMutability": "nonpayable",
      "type": "constructor"
    },
    {
      "inputs": [
        {
          "internalType": "string",
          "name": "name_",
          "type": "string"
        },
        {
          "internalType": "string",
          "name": "poster_img_",
          "type": "string"
        }
      ],
      "name": "addFilm",
      "outputs": [],
      "stateMutability": "nonpayable",
      "type": "function"
    },
    {
      "inputs": [
        {
          "internalType": "uint256",
          "name": "film_id",
          "type": "uint256"
        },
        {
          "components": [
            {
              "internalType": "uint256",
              "name": "datetime",
              "type": "uint256"
            },
            {
              "internalType": "uint256",
              "name": "seats_count",
              "type": "uint256"
            },
            {
              "internalType": "uint256",
              "name": "seat_price",
              "type": "uint256"
            }
          ],
          "internalType": "struct Cinema.Session",
          "name": "new_session",
          "type": "tuple"
        }
      ],
      "name": "addFilmSession",
      "outputs": [],
      "stateMutability": "nonpayable",
      "type": "function"
    },
    {
      "inputs": [
        {
          "internalType": "address",
          "name": "user",
          "type": "address"
        }
      ],
      "name": "addManager",
      "outputs": [],
      "stateMutability": "nonpayable",
      "type": "function"
    },
    {
      "inputs": [
        {
          "internalType": "address",
          "name": "user",
          "type": "address"
        }
      ],
      "name": "allBookings",
      "outputs": [
        {
          "components": [
            {
              "internalType": "uint256",
              "name": "ticket_id",
              "type": "uint256"
            },
            {
              "internalType": "uint256",
              "name": "film_id",
              "type": "uint256"
            },
            {
              "internalType": "uint256",
              "name": "session_id",
              "type": "uint256"
            },
            {
              "internalType": "uint256",
              "name": "seat",
              "type": "uint256"
            },
            {
              "internalType": "uint256",
              "name": "seat_price",
              "type": "uint256"
            },
            {
              "internalType": "uint256",
              "name": "session_datetime",
              "type": "uint256"
            },
            {
              "internalType": "uint256",
              "name": "purchase_datetime",
              "type": "uint256"
            },
            {
              "internalType": "bool",
              "name": "isUsed",
              "type": "bool"
            }
          ],
          "internalType": "struct Cinema.Booking[]",
          "name": "",
          "type": "tuple[]"
        }
      ],
      "stateMutability": "view",
      "type": "function"
    },
    {
      "inputs": [],
      "name": "allClients",
      "outputs": [
        {
          "internalType": "address[]",
          "name": "",
          "type": "address[]"
        }
      ],
      "stateMutability": "view",
      "type": "function"
    },
    {
      "inputs": [],
      "name": "allCurrentTickets",
      "outputs": [
        {
          "components": [
            {
              "internalType": "uint256",
              "name": "ticket_id",
              "type": "uint256"
            },
            {
              "internalType": "uint256",
              "name": "film_id",
              "type": "uint256"
            },
            {
              "internalType": "uint256",
              "name": "session_id",
              "type": "uint256"
            },
            {
              "internalType": "uint256",
              "name": "seat",
              "type": "uint256"
            },
            {
              "internalType": "uint256",
              "name": "seat_price",
              "type": "uint256"
            },
            {
              "internalType": "uint256",
              "name": "session_datetime",
              "type": "uint256"
            },
            {
              "internalType": "uint256",
              "name": "purchase_datetime",
              "type": "uint256"
            },
            {
              "internalType": "bool",
              "name": "isUsed",
              "type": "bool"
            }
          ],
          "internalType": "struct Cinema.Booking[]",
          "name": "",
          "type": "tuple[]"
        }
      ],
      "stateMutability": "view",
      "type": "function"
    },
    {
      "inputs": [],
      "name": "allManagers",
      "outputs": [
        {
          "internalType": "address[]",
          "name": "",
          "type": "address[]"
        }
      ],
      "stateMutability": "view",
      "type": "function"
    },
    {
      "inputs": [
        {
          "internalType": "uint256",
          "name": "",
          "type": "uint256"
        }
      ],
      "name": "clients",
      "outputs": [
        {
          "internalType": "address",
          "name": "",
          "type": "address"
        }
      ],
      "stateMutability": "view",
      "type": "function"
    },
    {
      "inputs": [],
      "name": "getAllFilms",
      "outputs": [
        {
          "components": [
            {
              "internalType": "string",
              "name": "name",
              "type": "string"
            },
            {
              "internalType": "string",
              "name": "poster_img",
              "type": "string"
            },
            {
              "components": [
                {
                  "internalType": "uint256",
                  "name": "datetime",
                  "type": "uint256"
                },
                {
                  "internalType": "uint256",
                  "name": "seats_count",
                  "type": "uint256"
                },
                {
                  "internalType": "uint256",
                  "name": "seat_price",
                  "type": "uint256"
                }
              ],
              "internalType": "struct Cinema.Session[]",
              "name": "sessions",
              "type": "tuple[]"
            }
          ],
          "internalType": "struct Cinema.Film[]",
          "name": "",
          "type": "tuple[]"
        }
      ],
      "stateMutability": "view",
      "type": "function"
    },
    {
      "inputs": [
        {
          "internalType": "uint256",
          "name": "id",
          "type": "uint256"
        }
      ],
      "name": "getFilmSessions",
      "outputs": [
        {
          "components": [
            {
              "internalType": "uint256",
              "name": "datetime",
              "type": "uint256"
            },
            {
              "internalType": "uint256",
              "name": "seats_count",
              "type": "uint256"
            },
            {
              "internalType": "uint256",
              "name": "seat_price",
              "type": "uint256"
            }
          ],
          "internalType": "struct Cinema.Session[]",
          "name": "",
          "type": "tuple[]"
        }
      ],
      "stateMutability": "view",
      "type": "function"
    },
    {
      "inputs": [
        {
          "internalType": "address",
          "name": "client",
          "type": "address"
        },
        {
          "internalType": "uint256",
          "name": "ticket_index",
          "type": "uint256"
        }
      ],
      "name": "getTicket",
      "outputs": [
        {
          "components": [
            {
              "internalType": "uint256",
              "name": "ticket_id",
              "type": "uint256"
            },
            {
              "internalType": "uint256",
              "name": "film_id",
              "type": "uint256"
            },
            {
              "internalType": "uint256",
              "name": "session_id",
              "type": "uint256"
            },
            {
              "internalType": "uint256",
              "name": "seat",
              "type": "uint256"
            },
            {
              "internalType": "uint256",
              "name": "seat_price",
              "type": "uint256"
            },
            {
              "internalType": "uint256",
              "name": "session_datetime",
              "type": "uint256"
            },
            {
              "internalType": "uint256",
              "name": "purchase_datetime",
              "type": "uint256"
            },
            {
              "internalType": "bool",
              "name": "isUsed",
              "type": "bool"
            }
          ],
          "internalType": "struct Cinema.Booking",
          "name": "",
          "type": "tuple"
        }
      ],
      "stateMutability": "view",
      "type": "function"
    },
    {
      "inputs": [
        {
          "internalType": "address",
          "name": "user",
          "type": "address"
        }
      ],
      "name": "isNewManager",
      "outputs": [
        {
          "internalType": "bool",
          "name": "",
          "type": "bool"
        }
      ],
      "stateMutability": "view",
      "type": "function"
    },
    {
      "inputs": [
        {
          "internalType": "uint256",
          "name": "",
          "type": "uint256"
        }
      ],
      "name": "managers",
      "outputs": [
        {
          "internalType": "address",
          "name": "",
          "type": "address"
        }
      ],
      "stateMutability": "view",
      "type": "function"
    },
    {
      "inputs": [
        {
          "internalType": "address",
          "name": "user",
          "type": "address"
        },
        {
          "components": [
            {
              "internalType": "uint256",
              "name": "ticket_id",
              "type": "uint256"
            },
            {
              "internalType": "uint256",
              "name": "film_id",
              "type": "uint256"
            },
            {
              "internalType": "uint256",
              "name": "session_id",
              "type": "uint256"
            },
            {
              "internalType": "uint256",
              "name": "seat",
              "type": "uint256"
            },
            {
              "internalType": "uint256",
              "name": "seat_price",
              "type": "uint256"
            },
            {
              "internalType": "uint256",
              "name": "session_datetime",
              "type": "uint256"
            },
            {
              "internalType": "uint256",
              "name": "purchase_datetime",
              "type": "uint256"
            },
            {
              "internalType": "bool",
              "name": "isUsed",
              "type": "bool"
            }
          ],
          "internalType": "struct Cinema.Booking[]",
          "name": "new_bookings",
          "type": "tuple[]"
        }
      ],
      "name": "purchaseBooking",
      "outputs": [],
      "stateMutability": "payable",
      "type": "function"
    },
    {
      "inputs": [
        {
          "internalType": "uint256",
          "name": "id",
          "type": "uint256"
        }
      ],
      "name": "removeFilm",
      "outputs": [],
      "stateMutability": "nonpayable",
      "type": "function"
    },
    {
      "inputs": [
        {
          "internalType": "address",
          "name": "user",
          "type": "address"
        }
      ],
      "name": "removeManager",
      "outputs": [],
      "stateMutability": "nonpayable",
      "type": "function"
    },
    {
      "inputs": [
        {
          "internalType": "uint256",
          "name": "id",
          "type": "uint256"
        },
        {
          "internalType": "uint256",
          "name": "film_id",
          "type": "uint256"
        }
      ],
      "name": "removeSession",
      "outputs": [],
      "stateMutability": "nonpayable",
      "type": "function"
    },
    {
      "inputs": [
        {
          "internalType": "address",
          "name": "client",
          "type": "address"
        },
        {
          "internalType": "uint256",
          "name": "ticket_index",
          "type": "uint256"
        },
        {
          "internalType": "bool",
          "name": "status",
          "type": "bool"
        }
      ],
      "name": "setTicketStatus",
      "outputs": [],
      "stateMutability": "nonpayable",
      "type": "function"
    },
    {
      "inputs": [],
      "name": "tickets_counter",
      "outputs": [
        {
          "internalType": "uint256",
          "name": "",
          "type": "uint256"
        }
      ],
      "stateMutability": "view",
      "type": "function"
    },
    {
      "inputs": [
        {
          "internalType": "uint256",
          "name": "id",
          "type": "uint256"
        },
        {
          "internalType": "string",
          "name": "name_",
          "type": "string"
        },
        {
          "internalType": "string",
          "name": "poster_img_",
          "type": "string"
        }
      ],
      "name": "updateFilm",
      "outputs": [],
      "stateMutability": "nonpayable",
      "type": "function"
    },
    {
      "inputs": [
        {
          "internalType": "uint256",
          "name": "id",
          "type": "uint256"
        },
        {
          "internalType": "uint256",
          "name": "film_id",
          "type": "uint256"
        },
        {
          "components": [
            {
              "internalType": "uint256",
              "name": "datetime",
              "type": "uint256"
            },
            {
              "internalType": "uint256",
              "name": "seats_count",
              "type": "uint256"
            },
            {
              "internalType": "uint256",
              "name": "seat_price",
              "type": "uint256"
            }
          ],
          "internalType": "struct Cinema.Session",
          "name": "new_session",
          "type": "tuple"
        }
      ],
      "name": "updateFilmSession",
      "outputs": [],
      "stateMutability": "nonpayable",
      "type": "function"
    },
    {
      "inputs": [
        {
          "internalType": "address",
          "name": "user",
          "type": "address"
        }
      ],
      "name": "userRole",
      "outputs": [
        {
          "internalType": "string",
          "name": "",
          "type": "string"
        }
      ],
      "stateMutability": "view",
      "type": "function"
    }
  ],
  "bytecode": "0x60806040526000600355600060055534801561001a57600080fd5b50336000806101000a81548173ffffffffffffffffffffffffffffffffffffffff021916908373ffffffffffffffffffffffffffffffffffffffff1602179055506131798061006a6000396000f3fe6080604052600436106101355760003560e01c80639c30b35e116100ab578063bad410a51161006f578063bad410a514610424578063cb07647814610440578063daed9f661461047d578063e3451310146104a6578063ea200144146104cf578063f88af21d1461050c57610135565b80639c30b35e14610353578063a175816c1461037e578063ac18de43146103a7578063ac9f8c3b146103d0578063ad803dd0146103fb57610135565b80633086779a116100fd5780633086779a1461021f5780633d39c26014610248578063534f56801461028557806357fb46fd146102c25780636faa0469146102eb5780637daadbf41461031657610135565b806312bd4f4c1461013a57806314ade4511461017757806316cf6c8b146101a25780631e5f1c02146101cb5780632d06177a146101f6575b600080fd5b34801561014657600080fd5b50610161600480360381019061015c9190611f1c565b610549565b60405161016e9190611f64565b60405180910390f35b34801561018357600080fd5b5061018c6105f8565b604051610199919061203d565b60405180910390f35b3480156101ae57600080fd5b506101c960048036038101906101c49190612095565b610686565b005b3480156101d757600080fd5b506101e061076c565b6040516101ed9190612245565b60405180910390f35b34801561020257600080fd5b5061021d60048036038101906102189190611f1c565b6109c2565b005b34801561022b57600080fd5b506102466004803603810190610241919061235c565b610b5a565b005b34801561025457600080fd5b5061026f600480360381019061026a919061239c565b610c4f565b60405161027c91906123d8565b60405180910390f35b34801561029157600080fd5b506102ac60048036038101906102a79190611f1c565b610c8e565b6040516102b9919061247b565b60405180910390f35b3480156102ce57600080fd5b506102e960048036038101906102e4919061239c565b610dac565b005b3480156102f757600080fd5b50610300610e86565b60405161030d91906126f8565b60405180910390f35b34801561032257600080fd5b5061033d60048036038101906103389190611f1c565b6110e7565b60405161034a9190612245565b60405180910390f35b34801561035f57600080fd5b506103686111e7565b604051610375919061203d565b60405180910390f35b34801561038a57600080fd5b506103a560048036038101906103a091906127d4565b611275565b005b3480156103b357600080fd5b506103ce60048036038101906103c99190611f1c565b61136e565b005b3480156103dc57600080fd5b506103e5611511565b6040516103f2919061285b565b60405180910390f35b34801561040757600080fd5b50610422600480360381019061041d9190612876565b611517565b005b61043e60048036038101906104399190612a89565b611605565b005b34801561044c57600080fd5b5061046760048036038101906104629190612ae5565b611944565b6040516104749190612bc7565b60405180910390f35b34801561048957600080fd5b506104a4600480360381019061049f9190612be3565b611a20565b005b3480156104b257600080fd5b506104cd60048036038101906104c89190612c36565b611a9f565b005b3480156104db57600080fd5b506104f660048036038101906104f1919061239c565b611b8b565b6040516105039190612d30565b60405180910390f35b34801561051857600080fd5b50610533600480360381019061052e919061239c565b611c1e565b60405161054091906123d8565b60405180910390f35b600080600090505b6006805490508110156105ed578273ffffffffffffffffffffffffffffffffffffffff166006828154811061058957610588612d52565b5b9060005260206000200160009054906101000a900473ffffffffffffffffffffffffffffffffffffffff1673ffffffffffffffffffffffffffffffffffffffff1614156105da5760009150506105f3565b80806105e590612db0565b915050610551565b50600190505b919050565b6060600180548060200260200160405190810160405280929190818152602001828054801561067c57602002820191906000526020600020905b8160009054906101000a900473ffffffffffffffffffffffffffffffffffffffff1673ffffffffffffffffffffffffffffffffffffffff1681526020019060010190808311610632575b5050505050905090565b7f971ee2c8925badb60ae2abac1a4faf0aa9b739dd57ac1b3b7a1e150be855cde36106b033610c8e565b6040516020016106c09190612e35565b604051602081830303815290604052805190602001201415610717576040517f08c379a000000000000000000000000000000000000000000000000000000000815260040161070e90612e98565b60405180910390fd5b60046000828152602001908152602001600020600201828154811061073f5761073e612d52565b5b90600052602060002090600302016000808201600090556001820160009055600282016000905550505050565b6060600060035467ffffffffffffffff81111561078c5761078b61227d565b5b6040519080825280602002602001820160405280156107c557816020015b6107b2611d0c565b8152602001906001900390816107aa5790505b50905060008043905060005b6001805490508110156109b857600060026000600184815481106107f8576107f7612d52565b5b9060005260206000200160009054906101000a900473ffffffffffffffffffffffffffffffffffffffff1673ffffffffffffffffffffffffffffffffffffffff1673ffffffffffffffffffffffffffffffffffffffff168152602001908152602001600020805480602002602001604051908101604052809291908181526020016000905b82821015610911578382906000526020600020906008020160405180610100016040529081600082015481526020016001820154815260200160028201548152602001600382015481526020016004820154815260200160058201548152602001600682015481526020016007820160009054906101000a900460ff1615151515815250508152602001906001019061087d565b50505050905060005b81518110156109a3578382828151811061093757610936612d52565b5b602002602001015160a00151106109905781818151811061095b5761095a612d52565b5b602002602001015186868151811061097657610975612d52565b5b6020026020010181905250848061098c90612db0565b9550505b808061099b90612db0565b91505061091a565b505080806109b090612db0565b9150506107d1565b5082935050505090565b60008054906101000a900473ffffffffffffffffffffffffffffffffffffffff1673ffffffffffffffffffffffffffffffffffffffff163373ffffffffffffffffffffffffffffffffffffffff1614610a50576040517f08c379a0000000000000000000000000000000000000000000000000000000008152600401610a4790612f04565b60405180910390fd5b60011515610a5d82610549565b151514610a9f576040517f08c379a0000000000000000000000000000000000000000000000000000000008152600401610a9690612f70565b60405180910390fd5b6006819080600181540180825580915050600190039060005260206000200160009091909190916101000a81548173ffffffffffffffffffffffffffffffffffffffff021916908373ffffffffffffffffffffffffffffffffffffffff1602179055506001600680549050610b149190612f90565b600760008373ffffffffffffffffffffffffffffffffffffffff1673ffffffffffffffffffffffffffffffffffffffff1681526020019081526020016000208190555050565b7f971ee2c8925badb60ae2abac1a4faf0aa9b739dd57ac1b3b7a1e150be855cde3610b8433610c8e565b604051602001610b949190612e35565b604051602081830303815290604052805190602001201415610beb576040517f08c379a0000000000000000000000000000000000000000000000000000000008152600401610be290612e98565b60405180910390fd5b6004600083815260200190815260200160002060020181908060018154018082558091505060019003906000526020600020906003020160009091909190915060008201518160000155602082015181600101556040820151816002015550505050565b60068181548110610c5f57600080fd5b906000526020600020016000915054906101000a900473ffffffffffffffffffffffffffffffffffffffff1681565b606060008054906101000a900473ffffffffffffffffffffffffffffffffffffffff1673ffffffffffffffffffffffffffffffffffffffff168273ffffffffffffffffffffffffffffffffffffffff1614610d6e5760001515610cf083610549565b151514610d32576040518060400160405280600681526020017f636c69656e740000000000000000000000000000000000000000000000000000815250610d69565b6040518060400160405280600781526020017f6d616e61676572000000000000000000000000000000000000000000000000008152505b610da5565b6040518060400160405280600581526020017f6f776e65720000000000000000000000000000000000000000000000000000008152505b9050919050565b7f971ee2c8925badb60ae2abac1a4faf0aa9b739dd57ac1b3b7a1e150be855cde3610dd633610c8e565b604051602001610de69190612e35565b604051602081830303815290604052805190602001201415610e3d576040517f08c379a0000000000000000000000000000000000000000000000000000000008152600401610e3490612e98565b60405180910390fd5b6004600082815260200190815260200160002060008082016000610e619190611d53565b600182016000610e719190611d53565b600282016000610e819190611d93565b505050565b6060600060055467ffffffffffffffff811115610ea657610ea561227d565b5b604051908082528060200260200182016040528015610edf57816020015b610ecc611db7565b815260200190600190039081610ec45790505b50905060005b6005548110156110df5760046000828152602001908152602001600020604051806060016040529081600082018054610f1d90612ff3565b80601f0160208091040260200160405190810160405280929190818152602001828054610f4990612ff3565b8015610f965780601f10610f6b57610100808354040283529160200191610f96565b820191906000526020600020905b815481529060010190602001808311610f7957829003601f168201915b50505050508152602001600182018054610faf90612ff3565b80601f0160208091040260200160405190810160405280929190818152602001828054610fdb90612ff3565b80156110285780601f10610ffd57610100808354040283529160200191611028565b820191906000526020600020905b81548152906001019060200180831161100b57829003601f168201915b5050505050815260200160028201805480602002602001604051908101604052809291908181526020016000905b828210156110a65783829060005260206000209060030201604051806060016040529081600082015481526020016001820154815260200160028201548152505081526020019060010190611056565b50505050815250508282815181106110c1576110c0612d52565b5b602002602001018190525080806110d790612db0565b915050610ee5565b508091505090565b6060600260008373ffffffffffffffffffffffffffffffffffffffff1673ffffffffffffffffffffffffffffffffffffffff168152602001908152602001600020805480602002602001604051908101604052809291908181526020016000905b828210156111dc578382906000526020600020906008020160405180610100016040529081600082015481526020016001820154815260200160028201548152602001600382015481526020016004820154815260200160058201548152602001600682015481526020016007820160009054906101000a900460ff16151515158152505081526020019060010190611148565b505050509050919050565b6060600680548060200260200160405190810160405280929190818152602001828054801561126b57602002820191906000526020600020905b8160009054906101000a900473ffffffffffffffffffffffffffffffffffffffff1673ffffffffffffffffffffffffffffffffffffffff1681526020019060010190808311611221575b5050505050905090565b7f971ee2c8925badb60ae2abac1a4faf0aa9b739dd57ac1b3b7a1e150be855cde361129f33610c8e565b6040516020016112af9190612e35565b604051602081830303815290604052805190602001201415611306576040517f08c379a00000000000000000000000000000000000000000000000000000000081526004016112fd90612e98565b60405180910390fd5b6000600460006005548152602001908152602001600020905082816000019080519060200190611337929190611dd8565b5081816001019080519060200190611350929190611dd8565b506005600081548092919061136490612db0565b9190505550505050565b60008054906101000a900473ffffffffffffffffffffffffffffffffffffffff1673ffffffffffffffffffffffffffffffffffffffff163373ffffffffffffffffffffffffffffffffffffffff16146113fc576040517f08c379a00000000000000000000000000000000000000000000000000000000081526004016113f390612f04565b60405180910390fd5b6000151561140982610549565b15151461144b576040517f08c379a000000000000000000000000000000000000000000000000000000000815260040161144290613071565b60405180910390fd5b6006600760008373ffffffffffffffffffffffffffffffffffffffff1673ffffffffffffffffffffffffffffffffffffffff168152602001908152602001600020548154811061149e5761149d612d52565b5b9060005260206000200160006101000a81549073ffffffffffffffffffffffffffffffffffffffff0219169055600760008273ffffffffffffffffffffffffffffffffffffffff1673ffffffffffffffffffffffffffffffffffffffff1681526020019081526020016000206000905550565b60035481565b7f971ee2c8925badb60ae2abac1a4faf0aa9b739dd57ac1b3b7a1e150be855cde361154133610c8e565b6040516020016115519190612e35565b6040516020818303038152906040528051906020012014156115a8576040517f08c379a000000000000000000000000000000000000000000000000000000000815260040161159f90612e98565b60405180910390fd5b806004600084815260200190815260200160002060020184815481106115d1576115d0612d52565b5b9060005260206000209060030201600082015181600001556020820151816001015560408201518160020155905050505050565b60008060009054906101000a900473ffffffffffffffffffffffffffffffffffffffff1673ffffffffffffffffffffffffffffffffffffffff163460405161164c906130c2565b60006040518083038185875af1925050503d8060008114611689576040519150601f19603f3d011682016040523d82523d6000602084013e61168e565b606091505b50509050806116d2576040517f08c379a00000000000000000000000000000000000000000000000000000000081526004016116c990613123565b60405180910390fd5b6116db83611c5d565b15611744576001839080600181540180825580915050600190039060005260206000200160009091909190916101000a81548173ffffffffffffffffffffffffffffffffffffffff021916908373ffffffffffffffffffffffffffffffffffffffff1602179055505b60005b825181101561193e57600260008573ffffffffffffffffffffffffffffffffffffffff1673ffffffffffffffffffffffffffffffffffffffff16815260200190815260200160002060405180610100016040528060035481526020018584815181106117b6576117b5612d52565b5b60200260200101516020015181526020018584815181106117da576117d9612d52565b5b60200260200101516040015181526020018584815181106117fe576117fd612d52565b5b602002602001015160600151815260200185848151811061182257611821612d52565b5b602002602001015160800151815260200185848151811061184657611845612d52565b5b602002602001015160a00151815260200185848151811061186a57611869612d52565b5b602002602001015160c001518152602001600015158152509080600181540180825580915050600190039060005260206000209060080201600090919091909150600082015181600001556020820151816001015560408201518160020155606082015181600301556080820151816004015560a0820151816005015560c0820151816006015560e08201518160070160006101000a81548160ff02191690831515021790555050506003600081548092919061192690612db0565b9190505550808061193690612db0565b915050611747565b50505050565b61194c611d0c565b600260008473ffffffffffffffffffffffffffffffffffffffff1673ffffffffffffffffffffffffffffffffffffffff168152602001908152602001600020828154811061199d5761199c612d52565b5b906000526020600020906008020160405180610100016040529081600082015481526020016001820154815260200160028201548152602001600382015481526020016004820154815260200160058201548152602001600682015481526020016007820160009054906101000a900460ff161515151581525050905092915050565b80600260008573ffffffffffffffffffffffffffffffffffffffff1673ffffffffffffffffffffffffffffffffffffffff1681526020019081526020016000208381548110611a7257611a71612d52565b5b906000526020600020906008020160070160006101000a81548160ff021916908315150217905550505050565b7f971ee2c8925badb60ae2abac1a4faf0aa9b739dd57ac1b3b7a1e150be855cde3611ac933610c8e565b604051602001611ad99190612e35565b604051602081830303815290604052805190602001201415611b30576040517f08c379a0000000000000000000000000000000000000000000000000000000008152600401611b2790612e98565b60405180910390fd5b81600460008581526020019081526020016000206000019080519060200190611b5a929190611dd8565b5080600460008581526020019081526020016000206001019080519060200190611b85929190611dd8565b50505050565b606060046000838152602001908152602001600020600201805480602002602001604051908101604052809291908181526020016000905b82821015611c135783829060005260206000209060030201604051806060016040529081600082015481526020016001820154815260200160028201548152505081526020019060010190611bc3565b505050509050919050565b60018181548110611c2e57600080fd5b906000526020600020016000915054906101000a900473ffffffffffffffffffffffffffffffffffffffff1681565b600080600090505b600180549050811015611d01578273ffffffffffffffffffffffffffffffffffffffff1660018281548110611c9d57611c9c612d52565b5b9060005260206000200160009054906101000a900473ffffffffffffffffffffffffffffffffffffffff1673ffffffffffffffffffffffffffffffffffffffff161415611cee576000915050611d07565b8080611cf990612db0565b915050611c65565b50600190505b919050565b604051806101000160405280600081526020016000815260200160008152602001600081526020016000815260200160008152602001600081526020016000151581525090565b508054611d5f90612ff3565b6000825580601f10611d715750611d90565b601f016020900490600052602060002090810190611d8f9190611e5e565b5b50565b5080546000825560030290600052602060002090810190611db49190611e7b565b50565b60405180606001604052806060815260200160608152602001606081525090565b828054611de490612ff3565b90600052602060002090601f016020900481019282611e065760008555611e4d565b82601f10611e1f57805160ff1916838001178555611e4d565b82800160010185558215611e4d579182015b82811115611e4c578251825591602001919060010190611e31565b5b509050611e5a9190611e5e565b5090565b5b80821115611e77576000816000905550600101611e5f565b5090565b5b80821115611ea6576000808201600090556001820160009055600282016000905550600301611e7c565b5090565b6000604051905090565b600080fd5b600080fd5b600073ffffffffffffffffffffffffffffffffffffffff82169050919050565b6000611ee982611ebe565b9050919050565b611ef981611ede565b8114611f0457600080fd5b50565b600081359050611f1681611ef0565b92915050565b600060208284031215611f3257611f31611eb4565b5b6000611f4084828501611f07565b91505092915050565b60008115159050919050565b611f5e81611f49565b82525050565b6000602082019050611f796000830184611f55565b92915050565b600081519050919050565b600082825260208201905092915050565b6000819050602082019050919050565b611fb481611ede565b82525050565b6000611fc68383611fab565b60208301905092915050565b6000602082019050919050565b6000611fea82611f7f565b611ff48185611f8a565b9350611fff83611f9b565b8060005b838110156120305781516120178882611fba565b975061202283611fd2565b925050600181019050612003565b5085935050505092915050565b600060208201905081810360008301526120578184611fdf565b905092915050565b6000819050919050565b6120728161205f565b811461207d57600080fd5b50565b60008135905061208f81612069565b92915050565b600080604083850312156120ac576120ab611eb4565b5b60006120ba85828601612080565b92505060206120cb85828601612080565b9150509250929050565b600081519050919050565b600082825260208201905092915050565b6000819050602082019050919050565b61210a8161205f565b82525050565b61211981611f49565b82525050565b610100820160008201516121366000850182612101565b5060208201516121496020850182612101565b50604082015161215c6040850182612101565b50606082015161216f6060850182612101565b5060808201516121826080850182612101565b5060a082015161219560a0850182612101565b5060c08201516121a860c0850182612101565b5060e08201516121bb60e0850182612110565b50505050565b60006121cd838361211f565b6101008301905092915050565b6000602082019050919050565b60006121f2826120d5565b6121fc81856120e0565b9350612207836120f1565b8060005b8381101561223857815161221f88826121c1565b975061222a836121da565b92505060018101905061220b565b5085935050505092915050565b6000602082019050818103600083015261225f81846121e7565b905092915050565b600080fd5b6000601f19601f8301169050919050565b7f4e487b7100000000000000000000000000000000000000000000000000000000600052604160045260246000fd5b6122b58261226c565b810181811067ffffffffffffffff821117156122d4576122d361227d565b5b80604052505050565b60006122e7611eaa565b90506122f382826122ac565b919050565b60006060828403121561230e5761230d612267565b5b61231860606122dd565b9050600061232884828501612080565b600083015250602061233c84828501612080565b602083015250604061235084828501612080565b60408301525092915050565b6000806080838503121561237357612372611eb4565b5b600061238185828601612080565b9250506020612392858286016122f8565b9150509250929050565b6000602082840312156123b2576123b1611eb4565b5b60006123c084828501612080565b91505092915050565b6123d281611ede565b82525050565b60006020820190506123ed60008301846123c9565b92915050565b600081519050919050565b600082825260208201905092915050565b60005b8381101561242d578082015181840152602081019050612412565b8381111561243c576000848401525b50505050565b600061244d826123f3565b61245781856123fe565b935061246781856020860161240f565b6124708161226c565b840191505092915050565b600060208201905081810360008301526124958184612442565b905092915050565b600081519050919050565b600082825260208201905092915050565b6000819050602082019050919050565b600082825260208201905092915050565b60006124e5826123f3565b6124ef81856124c9565b93506124ff81856020860161240f565b6125088161226c565b840191505092915050565b600081519050919050565b600082825260208201905092915050565b6000819050602082019050919050565b6060820160008201516125556000850182612101565b5060208201516125686020850182612101565b50604082015161257b6040850182612101565b50505050565b600061258d838361253f565b60608301905092915050565b6000602082019050919050565b60006125b182612513565b6125bb818561251e565b93506125c68361252f565b8060005b838110156125f75781516125de8882612581565b97506125e983612599565b9250506001810190506125ca565b5085935050505092915050565b6000606083016000830151848203600086015261262182826124da565b9150506020830151848203602086015261263b82826124da565b9150506040830151848203604086015261265582826125a6565b9150508091505092915050565b600061266e8383612604565b905092915050565b6000602082019050919050565b600061268e8261249d565b61269881856124a8565b9350836020820285016126aa856124b9565b8060005b858110156126e657848403895281516126c78582612662565b94506126d283612676565b925060208a019950506001810190506126ae565b50829750879550505050505092915050565b600060208201905081810360008301526127128184612683565b905092915050565b600080fd5b600080fd5b600067ffffffffffffffff82111561273f5761273e61227d565b5b6127488261226c565b9050602081019050919050565b82818337600083830152505050565b600061277761277284612724565b6122dd565b9050828152602081018484840111156127935761279261271f565b5b61279e848285612755565b509392505050565b600082601f8301126127bb576127ba61271a565b5b81356127cb848260208601612764565b91505092915050565b600080604083850312156127eb576127ea611eb4565b5b600083013567ffffffffffffffff81111561280957612808611eb9565b5b612815858286016127a6565b925050602083013567ffffffffffffffff81111561283657612835611eb9565b5b612842858286016127a6565b9150509250929050565b6128558161205f565b82525050565b6000602082019050612870600083018461284c565b92915050565b600080600060a0848603121561288f5761288e611eb4565b5b600061289d86828701612080565b93505060206128ae86828701612080565b92505060406128bf868287016122f8565b9150509250925092565b600067ffffffffffffffff8211156128e4576128e361227d565b5b602082029050602081019050919050565b600080fd5b61290381611f49565b811461290e57600080fd5b50565b600081359050612920816128fa565b92915050565b6000610100828403121561293d5761293c612267565b5b6129486101006122dd565b9050600061295884828501612080565b600083015250602061296c84828501612080565b602083015250604061298084828501612080565b604083015250606061299484828501612080565b60608301525060806129a884828501612080565b60808301525060a06129bc84828501612080565b60a08301525060c06129d084828501612080565b60c08301525060e06129e484828501612911565b60e08301525092915050565b6000612a036129fe846128c9565b6122dd565b9050808382526020820190506101008402830185811115612a2757612a266128f5565b5b835b81811015612a515780612a3c8882612926565b84526020840193505061010081019050612a29565b5050509392505050565b600082601f830112612a7057612a6f61271a565b5b8135612a808482602086016129f0565b91505092915050565b60008060408385031215612aa057612a9f611eb4565b5b6000612aae85828601611f07565b925050602083013567ffffffffffffffff811115612acf57612ace611eb9565b5b612adb85828601612a5b565b9150509250929050565b60008060408385031215612afc57612afb611eb4565b5b6000612b0a85828601611f07565b9250506020612b1b85828601612080565b9150509250929050565b61010082016000820151612b3c6000850182612101565b506020820151612b4f6020850182612101565b506040820151612b626040850182612101565b506060820151612b756060850182612101565b506080820151612b886080850182612101565b5060a0820151612b9b60a0850182612101565b5060c0820151612bae60c0850182612101565b5060e0820151612bc160e0850182612110565b50505050565b600061010082019050612bdd6000830184612b25565b92915050565b600080600060608486031215612bfc57612bfb611eb4565b5b6000612c0a86828701611f07565b9350506020612c1b86828701612080565b9250506040612c2c86828701612911565b9150509250925092565b600080600060608486031215612c4f57612c4e611eb4565b5b6000612c5d86828701612080565b935050602084013567ffffffffffffffff811115612c7e57612c7d611eb9565b5b612c8a868287016127a6565b925050604084013567ffffffffffffffff811115612cab57612caa611eb9565b5b612cb7868287016127a6565b9150509250925092565b600082825260208201905092915050565b6000612cdd82612513565b612ce78185612cc1565b9350612cf28361252f565b8060005b83811015612d23578151612d0a8882612581565b9750612d1583612599565b925050600181019050612cf6565b5085935050505092915050565b60006020820190508181036000830152612d4a8184612cd2565b905092915050565b7f4e487b7100000000000000000000000000000000000000000000000000000000600052603260045260246000fd5b7f4e487b7100000000000000000000000000000000000000000000000000000000600052601160045260246000fd5b6000612dbb8261205f565b91507fffffffffffffffffffffffffffffffffffffffffffffffffffffffffffffffff821415612dee57612ded612d81565b5b600182019050919050565b600081905092915050565b6000612e0f826123f3565b612e198185612df9565b9350612e2981856020860161240f565b80840191505092915050565b6000612e418284612e04565b915081905092915050565b7f596f752063616e277420646f207468697320616374696f6e0000000000000000600082015250565b6000612e826018836123fe565b9150612e8d82612e4c565b602082019050919050565b60006020820190508181036000830152612eb181612e75565b9050919050565b7f4f6e6c79206f776e65722063616e20646f207468697320616374696f6e000000600082015250565b6000612eee601d836123fe565b9150612ef982612eb8565b602082019050919050565b60006020820190508181036000830152612f1d81612ee1565b9050919050565b7f5573657220697320616c72656164792061206d616e6167657200000000000000600082015250565b6000612f5a6019836123fe565b9150612f6582612f24565b602082019050919050565b60006020820190508181036000830152612f8981612f4d565b9050919050565b6000612f9b8261205f565b9150612fa68361205f565b925082821015612fb957612fb8612d81565b5b828203905092915050565b7f4e487b7100000000000000000000000000000000000000000000000000000000600052602260045260246000fd5b6000600282049050600182168061300b57607f821691505b6020821081141561301f5761301e612fc4565b5b50919050565b7f55736572206973206e6f742061206d616e616765720000000000000000000000600082015250565b600061305b6015836123fe565b915061306682613025565b602082019050919050565b6000602082019050818103600083015261308a8161304e565b9050919050565b600081905092915050565b50565b60006130ac600083613091565b91506130b78261309c565b600082019050919050565b60006130cd8261309f565b9150819050919050565b7f5075726368617365206973206661696c65640000000000000000000000000000600082015250565b600061310d6012836123fe565b9150613118826130d7565b602082019050919050565b6000602082019050818103600083015261313c81613100565b905091905056fea26469706673582212209149b544d1367548193a6604bf8ec05427995065a6802a5cb9a3527ebe60fd3964736f6c634300080a0033",
  "linkReferences": {},
  "deployedLinkReferences": {}
}