{
  "_format": "hh-sol-artifact-1",
  "contractName": "Cinema",
  "sourceName": "contracts/Cinema.sol",
  "abi": [
    {
      "inputs": [],
      "stateMutability": "nonpayable",
      "type": "constructor"
    },
    {
      "inputs": [
        {
          "internalType": "string",
          "name": "name_",
          "type": "string"
        },
        {
          "internalType": "string",
          "name": "poster_img_",
          "type": "string"
        }
      ],
      "name": "addFilm",
      "outputs": [],
      "stateMutability": "nonpayable",
      "type": "function"
    },
    {
      "inputs": [
        {
          "internalType": "uint256",
          "name": "film_id",
          "type": "uint256"
        },
        {
          "components": [
            {
              "internalType": "uint256",
              "name": "datetime",
              "type": "uint256"
            },
            {
              "internalType": "uint256",
              "name": "seats_count",
              "type": "uint256"
            },
            {
              "internalType": "uint256",
              "name": "seat_price",
              "type": "uint256"
            }
          ],
          "internalType": "struct Cinema.Session",
          "name": "new_session",
          "type": "tuple"
        }
      ],
      "name": "addFilmSession",
      "outputs": [],
      "stateMutability": "nonpayable",
      "type": "function"
    },
    {
      "inputs": [
        {
          "internalType": "address",
          "name": "user",
          "type": "address"
        }
      ],
      "name": "addManager",
      "outputs": [],
      "stateMutability": "nonpayable",
      "type": "function"
    },
    {
      "inputs": [
        {
          "internalType": "address",
          "name": "user",
          "type": "address"
        }
      ],
      "name": "allBookings",
      "outputs": [
        {
          "components": [
            {
              "internalType": "uint256",
              "name": "ticket_id",
              "type": "uint256"
            },
            {
              "internalType": "uint256",
              "name": "film_id",
              "type": "uint256"
            },
            {
              "internalType": "uint256",
              "name": "session_id",
              "type": "uint256"
            },
            {
              "internalType": "uint256",
              "name": "seat",
              "type": "uint256"
            },
            {
              "internalType": "uint256",
              "name": "seat_price",
              "type": "uint256"
            },
            {
              "internalType": "uint256",
              "name": "session_datetime",
              "type": "uint256"
            },
            {
              "internalType": "uint256",
              "name": "purchase_datetime",
              "type": "uint256"
            },
            {
              "internalType": "bool",
              "name": "isUsed",
              "type": "bool"
            }
          ],
          "internalType": "struct Cinema.Booking[]",
          "name": "",
          "type": "tuple[]"
        }
      ],
      "stateMutability": "view",
      "type": "function"
    },
    {
      "inputs": [],
      "name": "allClients",
      "outputs": [
        {
          "internalType": "address[]",
          "name": "",
          "type": "address[]"
        }
      ],
      "stateMutability": "view",
      "type": "function"
    },
    {
      "inputs": [],
      "name": "allCurrentTickets",
      "outputs": [
        {
          "components": [
            {
              "internalType": "uint256",
              "name": "ticket_id",
              "type": "uint256"
            },
            {
              "internalType": "uint256",
              "name": "film_id",
              "type": "uint256"
            },
            {
              "internalType": "uint256",
              "name": "session_id",
              "type": "uint256"
            },
            {
              "internalType": "uint256",
              "name": "seat",
              "type": "uint256"
            },
            {
              "internalType": "uint256",
              "name": "seat_price",
              "type": "uint256"
            },
            {
              "internalType": "uint256",
              "name": "session_datetime",
              "type": "uint256"
            },
            {
              "internalType": "uint256",
              "name": "purchase_datetime",
              "type": "uint256"
            },
            {
              "internalType": "bool",
              "name": "isUsed",
              "type": "bool"
            }
          ],
          "internalType": "struct Cinema.Booking[]",
          "name": "",
          "type": "tuple[]"
        }
      ],
      "stateMutability": "view",
      "type": "function"
    },
    {
      "inputs": [],
      "name": "allManagers",
      "outputs": [
        {
          "internalType": "address[]",
          "name": "",
          "type": "address[]"
        }
      ],
      "stateMutability": "view",
      "type": "function"
    },
    {
      "inputs": [
        {
          "internalType": "uint256",
          "name": "",
          "type": "uint256"
        }
      ],
      "name": "clients",
      "outputs": [
        {
          "internalType": "address",
          "name": "",
          "type": "address"
        }
      ],
      "stateMutability": "view",
      "type": "function"
    },
    {
      "inputs": [],
      "name": "getAllFilms",
      "outputs": [
        {
          "components": [
            {
              "internalType": "string",
              "name": "name",
              "type": "string"
            },
            {
              "internalType": "string",
              "name": "poster_img",
              "type": "string"
            },
            {
              "components": [
                {
                  "internalType": "uint256",
                  "name": "datetime",
                  "type": "uint256"
                },
                {
                  "internalType": "uint256",
                  "name": "seats_count",
                  "type": "uint256"
                },
                {
                  "internalType": "uint256",
                  "name": "seat_price",
                  "type": "uint256"
                }
              ],
              "internalType": "struct Cinema.Session[]",
              "name": "sessions",
              "type": "tuple[]"
            }
          ],
          "internalType": "struct Cinema.Film[]",
          "name": "",
          "type": "tuple[]"
        }
      ],
      "stateMutability": "view",
      "type": "function"
    },
    {
      "inputs": [
        {
          "internalType": "uint256",
          "name": "id",
          "type": "uint256"
        }
      ],
      "name": "getFilmSessions",
      "outputs": [
        {
          "components": [
            {
              "internalType": "uint256",
              "name": "datetime",
              "type": "uint256"
            },
            {
              "internalType": "uint256",
              "name": "seats_count",
              "type": "uint256"
            },
            {
              "internalType": "uint256",
              "name": "seat_price",
              "type": "uint256"
            }
          ],
          "internalType": "struct Cinema.Session[]",
          "name": "",
          "type": "tuple[]"
        }
      ],
      "stateMutability": "view",
      "type": "function"
    },
    {
      "inputs": [
        {
          "internalType": "address",
          "name": "client",
          "type": "address"
        },
        {
          "internalType": "uint256",
          "name": "ticket_index",
          "type": "uint256"
        }
      ],
      "name": "getTicket",
      "outputs": [
        {
          "components": [
            {
              "internalType": "uint256",
              "name": "ticket_id",
              "type": "uint256"
            },
            {
              "internalType": "uint256",
              "name": "film_id",
              "type": "uint256"
            },
            {
              "internalType": "uint256",
              "name": "session_id",
              "type": "uint256"
            },
            {
              "internalType": "uint256",
              "name": "seat",
              "type": "uint256"
            },
            {
              "internalType": "uint256",
              "name": "seat_price",
              "type": "uint256"
            },
            {
              "internalType": "uint256",
              "name": "session_datetime",
              "type": "uint256"
            },
            {
              "internalType": "uint256",
              "name": "purchase_datetime",
              "type": "uint256"
            },
            {
              "internalType": "bool",
              "name": "isUsed",
              "type": "bool"
            }
          ],
          "internalType": "struct Cinema.Booking",
          "name": "",
          "type": "tuple"
        }
      ],
      "stateMutability": "view",
      "type": "function"
    },
    {
      "inputs": [
        {
          "internalType": "address",
          "name": "user",
          "type": "address"
        }
      ],
      "name": "isNewManager",
      "outputs": [
        {
          "internalType": "bool",
          "name": "",
          "type": "bool"
        }
      ],
      "stateMutability": "view",
      "type": "function"
    },
    {
      "inputs": [
        {
          "internalType": "uint256",
          "name": "",
          "type": "uint256"
        }
      ],
      "name": "managers",
      "outputs": [
        {
          "internalType": "address",
          "name": "",
          "type": "address"
        }
      ],
      "stateMutability": "view",
      "type": "function"
    },
    {
      "inputs": [
        {
          "internalType": "address",
          "name": "user",
          "type": "address"
        },
        {
          "components": [
            {
              "internalType": "uint256",
              "name": "ticket_id",
              "type": "uint256"
            },
            {
              "internalType": "uint256",
              "name": "film_id",
              "type": "uint256"
            },
            {
              "internalType": "uint256",
              "name": "session_id",
              "type": "uint256"
            },
            {
              "internalType": "uint256",
              "name": "seat",
              "type": "uint256"
            },
            {
              "internalType": "uint256",
              "name": "seat_price",
              "type": "uint256"
            },
            {
              "internalType": "uint256",
              "name": "session_datetime",
              "type": "uint256"
            },
            {
              "internalType": "uint256",
              "name": "purchase_datetime",
              "type": "uint256"
            },
            {
              "internalType": "bool",
              "name": "isUsed",
              "type": "bool"
            }
          ],
          "internalType": "struct Cinema.Booking[]",
          "name": "new_bookings",
          "type": "tuple[]"
        }
      ],
      "name": "purchaseBooking",
      "outputs": [],
      "stateMutability": "payable",
      "type": "function"
    },
    {
      "inputs": [
        {
          "internalType": "uint256",
          "name": "id",
          "type": "uint256"
        }
      ],
      "name": "removeFilm",
      "outputs": [],
      "stateMutability": "nonpayable",
      "type": "function"
    },
    {
      "inputs": [
        {
          "internalType": "address",
          "name": "user",
          "type": "address"
        }
      ],
      "name": "removeManager",
      "outputs": [],
      "stateMutability": "nonpayable",
      "type": "function"
    },
    {
      "inputs": [
        {
          "internalType": "uint256",
          "name": "id",
          "type": "uint256"
        },
        {
          "internalType": "uint256",
          "name": "film_id",
          "type": "uint256"
        }
      ],
      "name": "removeSession",
      "outputs": [],
      "stateMutability": "nonpayable",
      "type": "function"
    },
    {
      "inputs": [
        {
          "internalType": "address",
          "name": "client",
          "type": "address"
        },
        {
          "internalType": "uint256",
          "name": "ticket_index",
          "type": "uint256"
        },
        {
          "internalType": "bool",
          "name": "status",
          "type": "bool"
        }
      ],
      "name": "setTicketStatus",
      "outputs": [],
      "stateMutability": "nonpayable",
      "type": "function"
    },
    {
      "inputs": [],
      "name": "tickets_counter",
      "outputs": [
        {
          "internalType": "uint256",
          "name": "",
          "type": "uint256"
        }
      ],
      "stateMutability": "view",
      "type": "function"
    },
    {
      "inputs": [
        {
          "internalType": "uint256",
          "name": "id",
          "type": "uint256"
        },
        {
          "internalType": "string",
          "name": "name_",
          "type": "string"
        },
        {
          "internalType": "string",
          "name": "poster_img_",
          "type": "string"
        }
      ],
      "name": "updateFilm",
      "outputs": [],
      "stateMutability": "nonpayable",
      "type": "function"
    },
    {
      "inputs": [
        {
          "internalType": "uint256",
          "name": "id",
          "type": "uint256"
        },
        {
          "internalType": "uint256",
          "name": "film_id",
          "type": "uint256"
        },
        {
          "components": [
            {
              "internalType": "uint256",
              "name": "datetime",
              "type": "uint256"
            },
            {
              "internalType": "uint256",
              "name": "seats_count",
              "type": "uint256"
            },
            {
              "internalType": "uint256",
              "name": "seat_price",
              "type": "uint256"
            }
          ],
          "internalType": "struct Cinema.Session",
          "name": "new_session",
          "type": "tuple"
        }
      ],
      "name": "updateFilmSession",
      "outputs": [],
      "stateMutability": "nonpayable",
      "type": "function"
    },
    {
      "inputs": [
        {
          "internalType": "address",
          "name": "user",
          "type": "address"
        }
      ],
      "name": "userRole",
      "outputs": [
        {
          "internalType": "string",
          "name": "",
          "type": "string"
        }
      ],
      "stateMutability": "view",
      "type": "function"
    }
  ],
  "bytecode": "0x60806040526000600355600060055534801561001a57600080fd5b50336000806101000a81548173ffffffffffffffffffffffffffffffffffffffff021916908373ffffffffffffffffffffffffffffffffffffffff1602179055506139bf8061006a6000396000f3fe6080604052600436106101355760003560e01c80639c30b35e116100ab578063bad410a51161006f578063bad410a514610424578063cb07647814610440578063daed9f661461047d578063e3451310146104a6578063ea200144146104cf578063f88af21d1461050c57610135565b80639c30b35e14610353578063a175816c1461037e578063ac18de43146103a7578063ac9f8c3b146103d0578063ad803dd0146103fb57610135565b80633086779a116100fd5780633086779a1461021f5780633d39c26014610248578063534f56801461028557806357fb46fd146102c25780636faa0469146102eb5780637daadbf41461031657610135565b806312bd4f4c1461013a57806314ade4511461017757806316cf6c8b146101a25780631e5f1c02146101cb5780632d06177a146101f6575b600080fd5b34801561014657600080fd5b50610161600480360381019061015c91906124ad565b610549565b60405161016e91906124f5565b60405180910390f35b34801561018357600080fd5b5061018c6105f8565b60405161019991906125ce565b60405180910390f35b3480156101ae57600080fd5b506101c960048036038101906101c49190612626565b610686565b005b3480156101d757600080fd5b506101e061076c565b6040516101ed91906127d6565b60405180910390f35b34801561020257600080fd5b5061021d600480360381019061021891906124ad565b6109c2565b005b34801561022b57600080fd5b50610246600480360381019061024191906128ed565b610b5a565b005b34801561025457600080fd5b5061026f600480360381019061026a919061292d565b610ce4565b60405161027c9190612969565b60405180910390f35b34801561029157600080fd5b506102ac60048036038101906102a791906124ad565b610d23565b6040516102b99190612a0c565b60405180910390f35b3480156102ce57600080fd5b506102e960048036038101906102e4919061292d565b610e41565b005b3480156102f757600080fd5b50610300610f1b565b60405161030d9190612c89565b60405180910390f35b34801561032257600080fd5b5061033d600480360381019061033891906124ad565b61117c565b60405161034a91906127d6565b60405180910390f35b34801561035f57600080fd5b5061036861127c565b60405161037591906125ce565b60405180910390f35b34801561038a57600080fd5b506103a560048036038101906103a09190612d65565b61130a565b005b3480156103b357600080fd5b506103ce60048036038101906103c991906124ad565b611403565b005b3480156103dc57600080fd5b506103e5611756565b6040516103f29190612dec565b60405180910390f35b34801561040757600080fd5b50610422600480360381019061041d9190612e07565b61175c565b005b61043e6004803603810190610439919061301a565b61184a565b005b34801561044c57600080fd5b5061046760048036038101906104629190613076565b611daf565b6040516104749190613158565b60405180910390f35b34801561048957600080fd5b506104a4600480360381019061049f9190613174565b611e8b565b005b3480156104b257600080fd5b506104cd60048036038101906104c891906131c7565b611f9b565b005b3480156104db57600080fd5b506104f660048036038101906104f1919061292d565b61211c565b60405161050391906132c1565b60405180910390f35b34801561051857600080fd5b50610533600480360381019061052e919061292d565b6121af565b6040516105409190612969565b60405180910390f35b600080600090505b6006805490508110156105ed578273ffffffffffffffffffffffffffffffffffffffff1660068281548110610589576105886132e3565b5b9060005260206000200160009054906101000a900473ffffffffffffffffffffffffffffffffffffffff1673ffffffffffffffffffffffffffffffffffffffff1614156105da5760009150506105f3565b80806105e590613341565b915050610551565b50600190505b919050565b6060600180548060200260200160405190810160405280929190818152602001828054801561067c57602002820191906000526020600020905b8160009054906101000a900473ffffffffffffffffffffffffffffffffffffffff1673ffffffffffffffffffffffffffffffffffffffff1681526020019060010190808311610632575b5050505050905090565b7f971ee2c8925badb60ae2abac1a4faf0aa9b739dd57ac1b3b7a1e150be855cde36106b033610d23565b6040516020016106c091906133c6565b604051602081830303815290604052805190602001201415610717576040517f08c379a000000000000000000000000000000000000000000000000000000000815260040161070e90613429565b60405180910390fd5b60046000828152602001908152602001600020600201828154811061073f5761073e6132e3565b5b90600052602060002090600302016000808201600090556001820160009055600282016000905550505050565b6060600060035467ffffffffffffffff81111561078c5761078b61280e565b5b6040519080825280602002602001820160405280156107c557816020015b6107b261229d565b8152602001906001900390816107aa5790505b50905060008043905060005b6001805490508110156109b857600060026000600184815481106107f8576107f76132e3565b5b9060005260206000200160009054906101000a900473ffffffffffffffffffffffffffffffffffffffff1673ffffffffffffffffffffffffffffffffffffffff1673ffffffffffffffffffffffffffffffffffffffff168152602001908152602001600020805480602002602001604051908101604052809291908181526020016000905b82821015610911578382906000526020600020906008020160405180610100016040529081600082015481526020016001820154815260200160028201548152602001600382015481526020016004820154815260200160058201548152602001600682015481526020016007820160009054906101000a900460ff1615151515815250508152602001906001019061087d565b50505050905060005b81518110156109a35783828281518110610937576109366132e3565b5b602002602001015160a00151106109905781818151811061095b5761095a6132e3565b5b6020026020010151868681518110610976576109756132e3565b5b6020026020010181905250848061098c90613341565b9550505b808061099b90613341565b91505061091a565b505080806109b090613341565b9150506107d1565b5082935050505090565b60008054906101000a900473ffffffffffffffffffffffffffffffffffffffff1673ffffffffffffffffffffffffffffffffffffffff163373ffffffffffffffffffffffffffffffffffffffff1614610a50576040517f08c379a0000000000000000000000000000000000000000000000000000000008152600401610a4790613495565b60405180910390fd5b60011515610a5d82610549565b151514610a9f576040517f08c379a0000000000000000000000000000000000000000000000000000000008152600401610a9690613501565b60405180910390fd5b6006819080600181540180825580915050600190039060005260206000200160009091909190916101000a81548173ffffffffffffffffffffffffffffffffffffffff021916908373ffffffffffffffffffffffffffffffffffffffff1602179055506001600680549050610b149190613521565b600760008373ffffffffffffffffffffffffffffffffffffffff1673ffffffffffffffffffffffffffffffffffffffff1681526020019081526020016000208190555050565b7f971ee2c8925badb60ae2abac1a4faf0aa9b739dd57ac1b3b7a1e150be855cde3610b8433610d23565b604051602001610b9491906133c6565b604051602081830303815290604052805190602001201415610beb576040517f08c379a0000000000000000000000000000000000000000000000000000000008152600401610be290613429565b60405180910390fd5b6000600460008481526020019081526020016000206000018054610c0e90613584565b905014158015610c4157506000600460008481526020019081526020016000206001018054610c3c90613584565b905014155b610c80576040517f08c379a0000000000000000000000000000000000000000000000000000000008152600401610c7790613602565b60405180910390fd5b6004600083815260200190815260200160002060020181908060018154018082558091505060019003906000526020600020906003020160009091909190915060008201518160000155602082015181600101556040820151816002015550505050565b60068181548110610cf457600080fd5b906000526020600020016000915054906101000a900473ffffffffffffffffffffffffffffffffffffffff1681565b606060008054906101000a900473ffffffffffffffffffffffffffffffffffffffff1673ffffffffffffffffffffffffffffffffffffffff168273ffffffffffffffffffffffffffffffffffffffff1614610e035760001515610d8583610549565b151514610dc7576040518060400160405280600681526020017f636c69656e740000000000000000000000000000000000000000000000000000815250610dfe565b6040518060400160405280600781526020017f6d616e61676572000000000000000000000000000000000000000000000000008152505b610e3a565b6040518060400160405280600581526020017f6f776e65720000000000000000000000000000000000000000000000000000008152505b9050919050565b7f971ee2c8925badb60ae2abac1a4faf0aa9b739dd57ac1b3b7a1e150be855cde3610e6b33610d23565b604051602001610e7b91906133c6565b604051602081830303815290604052805190602001201415610ed2576040517f08c379a0000000000000000000000000000000000000000000000000000000008152600401610ec990613429565b60405180910390fd5b6004600082815260200190815260200160002060008082016000610ef691906122e4565b600182016000610f0691906122e4565b600282016000610f169190612324565b505050565b6060600060055467ffffffffffffffff811115610f3b57610f3a61280e565b5b604051908082528060200260200182016040528015610f7457816020015b610f61612348565b815260200190600190039081610f595790505b50905060005b6005548110156111745760046000828152602001908152602001600020604051806060016040529081600082018054610fb290613584565b80601f0160208091040260200160405190810160405280929190818152602001828054610fde90613584565b801561102b5780601f106110005761010080835404028352916020019161102b565b820191906000526020600020905b81548152906001019060200180831161100e57829003601f168201915b5050505050815260200160018201805461104490613584565b80601f016020809104026020016040519081016040528092919081815260200182805461107090613584565b80156110bd5780601f10611092576101008083540402835291602001916110bd565b820191906000526020600020905b8154815290600101906020018083116110a057829003601f168201915b5050505050815260200160028201805480602002602001604051908101604052809291908181526020016000905b8282101561113b57838290600052602060002090600302016040518060600160405290816000820154815260200160018201548152602001600282015481525050815260200190600101906110eb565b5050505081525050828281518110611156576111556132e3565b5b6020026020010181905250808061116c90613341565b915050610f7a565b508091505090565b6060600260008373ffffffffffffffffffffffffffffffffffffffff1673ffffffffffffffffffffffffffffffffffffffff168152602001908152602001600020805480602002602001604051908101604052809291908181526020016000905b82821015611271578382906000526020600020906008020160405180610100016040529081600082015481526020016001820154815260200160028201548152602001600382015481526020016004820154815260200160058201548152602001600682015481526020016007820160009054906101000a900460ff161515151581525050815260200190600101906111dd565b505050509050919050565b6060600680548060200260200160405190810160405280929190818152602001828054801561130057602002820191906000526020600020905b8160009054906101000a900473ffffffffffffffffffffffffffffffffffffffff1673ffffffffffffffffffffffffffffffffffffffff16815260200190600101908083116112b6575b5050505050905090565b7f971ee2c8925badb60ae2abac1a4faf0aa9b739dd57ac1b3b7a1e150be855cde361133433610d23565b60405160200161134491906133c6565b60405160208183030381529060405280519060200120141561139b576040517f08c379a000000000000000000000000000000000000000000000000000000000815260040161139290613429565b60405180910390fd5b60006004600060055481526020019081526020016000209050828160000190805190602001906113cc929190612369565b50818160010190805190602001906113e5929190612369565b50600560008154809291906113f990613341565b9190505550505050565b60008054906101000a900473ffffffffffffffffffffffffffffffffffffffff1673ffffffffffffffffffffffffffffffffffffffff163373ffffffffffffffffffffffffffffffffffffffff1614611491576040517f08c379a000000000000000000000000000000000000000000000000000000000815260040161148890613495565b60405180910390fd5b6000151561149e82610549565b1515146114e0576040517f08c379a00000000000000000000000000000000000000000000000000000000081526004016114d79061366e565b60405180910390fd5b600073ffffffffffffffffffffffffffffffffffffffff168173ffffffffffffffffffffffffffffffffffffffff161415611550576040517f08c379a000000000000000000000000000000000000000000000000000000000815260040161154790613700565b60405180910390fd5b6000600760008373ffffffffffffffffffffffffffffffffffffffff1673ffffffffffffffffffffffffffffffffffffffff168152602001908152602001600020549050600060016006805490506115a89190613521565b9050600681815481106115be576115bd6132e3565b5b9060005260206000200160009054906101000a900473ffffffffffffffffffffffffffffffffffffffff16600683815481106115fd576115fc6132e3565b5b9060005260206000200160006101000a81548173ffffffffffffffffffffffffffffffffffffffff021916908373ffffffffffffffffffffffffffffffffffffffff16021790555081600760006006858154811061165e5761165d6132e3565b5b9060005260206000200160009054906101000a900473ffffffffffffffffffffffffffffffffffffffff1673ffffffffffffffffffffffffffffffffffffffff1673ffffffffffffffffffffffffffffffffffffffff1681526020019081526020016000208190555060068054806116d9576116d8613720565b5b6001900381819060005260206000200160006101000a81549073ffffffffffffffffffffffffffffffffffffffff02191690559055600760008473ffffffffffffffffffffffffffffffffffffffff1673ffffffffffffffffffffffffffffffffffffffff16815260200190815260200160002060009055505050565b60035481565b7f971ee2c8925badb60ae2abac1a4faf0aa9b739dd57ac1b3b7a1e150be855cde361178633610d23565b60405160200161179691906133c6565b6040516020818303038152906040528051906020012014156117ed576040517f08c379a00000000000000000000000000000000000000000000000000000000081526004016117e490613429565b60405180910390fd5b80600460008481526020019081526020016000206002018481548110611816576118156132e3565b5b9060005260206000209060030201600082015181600001556020820151816001015560408201518160020155905050505050565b60008060009054906101000a900473ffffffffffffffffffffffffffffffffffffffff1673ffffffffffffffffffffffffffffffffffffffff163460405161189190613780565b60006040518083038185875af1925050503d80600081146118ce576040519150601f19603f3d011682016040523d82523d6000602084013e6118d3565b606091505b5050905080611917576040517f08c379a000000000000000000000000000000000000000000000000000000000815260040161190e906137e1565b60405180910390fd5b6000805b835181101561196357838181518110611937576119366132e3565b5b6020026020010151608001518261194e9190613801565b9150808061195b90613341565b91505061191b565b503481146119a6576040517f08c379a000000000000000000000000000000000000000000000000000000000815260040161199d906138a3565b60405180910390fd5b6000620186a0436119b791906138c3565b905060006119c361076c565b905060005b8151811015611b395760005b8651811015611b25578282815181106119f0576119ef6132e3565b5b602002602001015160200151878281518110611a0f57611a0e6132e3565b5b602002602001015160200151148015611a635750828281518110611a3657611a356132e3565b5b602002602001015160400151878281518110611a5557611a546132e3565b5b602002602001015160400151145b8015611aaa5750828281518110611a7d57611a7c6132e3565b5b602002602001015160600151878281518110611a9c57611a9b6132e3565b5b602002602001015160600151145b80611ad2575083878281518110611ac457611ac36132e3565b5b602002602001015160a00151105b15611b12576040517f08c379a0000000000000000000000000000000000000000000000000000000008152600401611b0990613969565b60405180910390fd5b8080611b1d90613341565b9150506119d4565b508080611b3190613341565b9150506119c8565b50611b43866121ee565b15611bac576001869080600181540180825580915050600190039060005260206000200160009091909190916101000a81548173ffffffffffffffffffffffffffffffffffffffff021916908373ffffffffffffffffffffffffffffffffffffffff1602179055505b60005b8551811015611da657600260008873ffffffffffffffffffffffffffffffffffffffff1673ffffffffffffffffffffffffffffffffffffffff1681526020019081526020016000206040518061010001604052806003548152602001888481518110611c1e57611c1d6132e3565b5b6020026020010151602001518152602001888481518110611c4257611c416132e3565b5b6020026020010151604001518152602001888481518110611c6657611c656132e3565b5b6020026020010151606001518152602001888481518110611c8a57611c896132e3565b5b6020026020010151608001518152602001888481518110611cae57611cad6132e3565b5b602002602001015160a001518152602001888481518110611cd257611cd16132e3565b5b602002602001015160c001518152602001600015158152509080600181540180825580915050600190039060005260206000209060080201600090919091909150600082015181600001556020820151816001015560408201518160020155606082015181600301556080820151816004015560a0820151816005015560c0820151816006015560e08201518160070160006101000a81548160ff021916908315150217905550505060036000815480929190611d8e90613341565b91905055508080611d9e90613341565b915050611baf565b50505050505050565b611db761229d565b600260008473ffffffffffffffffffffffffffffffffffffffff1673ffffffffffffffffffffffffffffffffffffffff1681526020019081526020016000208281548110611e0857611e076132e3565b5b906000526020600020906008020160405180610100016040529081600082015481526020016001820154815260200160028201548152602001600382015481526020016004820154815260200160058201548152602001600682015481526020016007820160009054906101000a900460ff161515151581525050905092915050565b7f971ee2c8925badb60ae2abac1a4faf0aa9b739dd57ac1b3b7a1e150be855cde3611eb533610d23565b604051602001611ec591906133c6565b604051602081830303815290604052805190602001201415611f1c576040517f08c379a0000000000000000000000000000000000000000000000000000000008152600401611f1390613429565b60405180910390fd5b80600260008573ffffffffffffffffffffffffffffffffffffffff1673ffffffffffffffffffffffffffffffffffffffff1681526020019081526020016000208381548110611f6e57611f6d6132e3565b5b906000526020600020906008020160070160006101000a81548160ff021916908315150217905550505050565b7f971ee2c8925badb60ae2abac1a4faf0aa9b739dd57ac1b3b7a1e150be855cde3611fc533610d23565b604051602001611fd591906133c6565b60405160208183030381529060405280519060200120141561202c576040517f08c379a000000000000000000000000000000000000000000000000000000000815260040161202390613429565b60405180910390fd5b600060046000858152602001908152602001600020600001805461204f90613584565b9050141580156120825750600060046000858152602001908152602001600020600101805461207d90613584565b905014155b6120c1576040517f08c379a00000000000000000000000000000000000000000000000000000000081526004016120b890613602565b60405180910390fd5b816004600085815260200190815260200160002060000190805190602001906120eb929190612369565b5080600460008581526020019081526020016000206001019080519060200190612116929190612369565b50505050565b606060046000838152602001908152602001600020600201805480602002602001604051908101604052809291908181526020016000905b828210156121a45783829060005260206000209060030201604051806060016040529081600082015481526020016001820154815260200160028201548152505081526020019060010190612154565b505050509050919050565b600181815481106121bf57600080fd5b906000526020600020016000915054906101000a900473ffffffffffffffffffffffffffffffffffffffff1681565b600080600090505b600180549050811015612292578273ffffffffffffffffffffffffffffffffffffffff166001828154811061222e5761222d6132e3565b5b9060005260206000200160009054906101000a900473ffffffffffffffffffffffffffffffffffffffff1673ffffffffffffffffffffffffffffffffffffffff16141561227f576000915050612298565b808061228a90613341565b9150506121f6565b50600190505b919050565b604051806101000160405280600081526020016000815260200160008152602001600081526020016000815260200160008152602001600081526020016000151581525090565b5080546122f090613584565b6000825580601f106123025750612321565b601f01602090049060005260206000209081019061232091906123ef565b5b50565b5080546000825560030290600052602060002090810190612345919061240c565b50565b60405180606001604052806060815260200160608152602001606081525090565b82805461237590613584565b90600052602060002090601f01602090048101928261239757600085556123de565b82601f106123b057805160ff19168380011785556123de565b828001600101855582156123de579182015b828111156123dd5782518255916020019190600101906123c2565b5b5090506123eb91906123ef565b5090565b5b808211156124085760008160009055506001016123f0565b5090565b5b8082111561243757600080820160009055600182016000905560028201600090555060030161240d565b5090565b6000604051905090565b600080fd5b600080fd5b600073ffffffffffffffffffffffffffffffffffffffff82169050919050565b600061247a8261244f565b9050919050565b61248a8161246f565b811461249557600080fd5b50565b6000813590506124a781612481565b92915050565b6000602082840312156124c3576124c2612445565b5b60006124d184828501612498565b91505092915050565b60008115159050919050565b6124ef816124da565b82525050565b600060208201905061250a60008301846124e6565b92915050565b600081519050919050565b600082825260208201905092915050565b6000819050602082019050919050565b6125458161246f565b82525050565b6000612557838361253c565b60208301905092915050565b6000602082019050919050565b600061257b82612510565b612585818561251b565b93506125908361252c565b8060005b838110156125c15781516125a8888261254b565b97506125b383612563565b925050600181019050612594565b5085935050505092915050565b600060208201905081810360008301526125e88184612570565b905092915050565b6000819050919050565b612603816125f0565b811461260e57600080fd5b50565b600081359050612620816125fa565b92915050565b6000806040838503121561263d5761263c612445565b5b600061264b85828601612611565b925050602061265c85828601612611565b9150509250929050565b600081519050919050565b600082825260208201905092915050565b6000819050602082019050919050565b61269b816125f0565b82525050565b6126aa816124da565b82525050565b610100820160008201516126c76000850182612692565b5060208201516126da6020850182612692565b5060408201516126ed6040850182612692565b5060608201516127006060850182612692565b5060808201516127136080850182612692565b5060a082015161272660a0850182612692565b5060c082015161273960c0850182612692565b5060e082015161274c60e08501826126a1565b50505050565b600061275e83836126b0565b6101008301905092915050565b6000602082019050919050565b600061278382612666565b61278d8185612671565b935061279883612682565b8060005b838110156127c95781516127b08882612752565b97506127bb8361276b565b92505060018101905061279c565b5085935050505092915050565b600060208201905081810360008301526127f08184612778565b905092915050565b600080fd5b6000601f19601f8301169050919050565b7f4e487b7100000000000000000000000000000000000000000000000000000000600052604160045260246000fd5b612846826127fd565b810181811067ffffffffffffffff821117156128655761286461280e565b5b80604052505050565b600061287861243b565b9050612884828261283d565b919050565b60006060828403121561289f5761289e6127f8565b5b6128a9606061286e565b905060006128b984828501612611565b60008301525060206128cd84828501612611565b60208301525060406128e184828501612611565b60408301525092915050565b6000806080838503121561290457612903612445565b5b600061291285828601612611565b925050602061292385828601612889565b9150509250929050565b60006020828403121561294357612942612445565b5b600061295184828501612611565b91505092915050565b6129638161246f565b82525050565b600060208201905061297e600083018461295a565b92915050565b600081519050919050565b600082825260208201905092915050565b60005b838110156129be5780820151818401526020810190506129a3565b838111156129cd576000848401525b50505050565b60006129de82612984565b6129e8818561298f565b93506129f88185602086016129a0565b612a01816127fd565b840191505092915050565b60006020820190508181036000830152612a2681846129d3565b905092915050565b600081519050919050565b600082825260208201905092915050565b6000819050602082019050919050565b600082825260208201905092915050565b6000612a7682612984565b612a808185612a5a565b9350612a908185602086016129a0565b612a99816127fd565b840191505092915050565b600081519050919050565b600082825260208201905092915050565b6000819050602082019050919050565b606082016000820151612ae66000850182612692565b506020820151612af96020850182612692565b506040820151612b0c6040850182612692565b50505050565b6000612b1e8383612ad0565b60608301905092915050565b6000602082019050919050565b6000612b4282612aa4565b612b4c8185612aaf565b9350612b5783612ac0565b8060005b83811015612b88578151612b6f8882612b12565b9750612b7a83612b2a565b925050600181019050612b5b565b5085935050505092915050565b60006060830160008301518482036000860152612bb28282612a6b565b91505060208301518482036020860152612bcc8282612a6b565b91505060408301518482036040860152612be68282612b37565b9150508091505092915050565b6000612bff8383612b95565b905092915050565b6000602082019050919050565b6000612c1f82612a2e565b612c298185612a39565b935083602082028501612c3b85612a4a565b8060005b85811015612c775784840389528151612c588582612bf3565b9450612c6383612c07565b925060208a01995050600181019050612c3f565b50829750879550505050505092915050565b60006020820190508181036000830152612ca38184612c14565b905092915050565b600080fd5b600080fd5b600067ffffffffffffffff821115612cd057612ccf61280e565b5b612cd9826127fd565b9050602081019050919050565b82818337600083830152505050565b6000612d08612d0384612cb5565b61286e565b905082815260208101848484011115612d2457612d23612cb0565b5b612d2f848285612ce6565b509392505050565b600082601f830112612d4c57612d4b612cab565b5b8135612d5c848260208601612cf5565b91505092915050565b60008060408385031215612d7c57612d7b612445565b5b600083013567ffffffffffffffff811115612d9a57612d9961244a565b5b612da685828601612d37565b925050602083013567ffffffffffffffff811115612dc757612dc661244a565b5b612dd385828601612d37565b9150509250929050565b612de6816125f0565b82525050565b6000602082019050612e016000830184612ddd565b92915050565b600080600060a08486031215612e2057612e1f612445565b5b6000612e2e86828701612611565b9350506020612e3f86828701612611565b9250506040612e5086828701612889565b9150509250925092565b600067ffffffffffffffff821115612e7557612e7461280e565b5b602082029050602081019050919050565b600080fd5b612e94816124da565b8114612e9f57600080fd5b50565b600081359050612eb181612e8b565b92915050565b60006101008284031215612ece57612ecd6127f8565b5b612ed961010061286e565b90506000612ee984828501612611565b6000830152506020612efd84828501612611565b6020830152506040612f1184828501612611565b6040830152506060612f2584828501612611565b6060830152506080612f3984828501612611565b60808301525060a0612f4d84828501612611565b60a08301525060c0612f6184828501612611565b60c08301525060e0612f7584828501612ea2565b60e08301525092915050565b6000612f94612f8f84612e5a565b61286e565b9050808382526020820190506101008402830185811115612fb857612fb7612e86565b5b835b81811015612fe25780612fcd8882612eb7565b84526020840193505061010081019050612fba565b5050509392505050565b600082601f83011261300157613000612cab565b5b8135613011848260208601612f81565b91505092915050565b6000806040838503121561303157613030612445565b5b600061303f85828601612498565b925050602083013567ffffffffffffffff8111156130605761305f61244a565b5b61306c85828601612fec565b9150509250929050565b6000806040838503121561308d5761308c612445565b5b600061309b85828601612498565b92505060206130ac85828601612611565b9150509250929050565b610100820160008201516130cd6000850182612692565b5060208201516130e06020850182612692565b5060408201516130f36040850182612692565b5060608201516131066060850182612692565b5060808201516131196080850182612692565b5060a082015161312c60a0850182612692565b5060c082015161313f60c0850182612692565b5060e082015161315260e08501826126a1565b50505050565b60006101008201905061316e60008301846130b6565b92915050565b60008060006060848603121561318d5761318c612445565b5b600061319b86828701612498565b93505060206131ac86828701612611565b92505060406131bd86828701612ea2565b9150509250925092565b6000806000606084860312156131e0576131df612445565b5b60006131ee86828701612611565b935050602084013567ffffffffffffffff81111561320f5761320e61244a565b5b61321b86828701612d37565b925050604084013567ffffffffffffffff81111561323c5761323b61244a565b5b61324886828701612d37565b9150509250925092565b600082825260208201905092915050565b600061326e82612aa4565b6132788185613252565b935061328383612ac0565b8060005b838110156132b457815161329b8882612b12565b97506132a683612b2a565b925050600181019050613287565b5085935050505092915050565b600060208201905081810360008301526132db8184613263565b905092915050565b7f4e487b7100000000000000000000000000000000000000000000000000000000600052603260045260246000fd5b7f4e487b7100000000000000000000000000000000000000000000000000000000600052601160045260246000fd5b600061334c826125f0565b91507fffffffffffffffffffffffffffffffffffffffffffffffffffffffffffffffff82141561337f5761337e613312565b5b600182019050919050565b600081905092915050565b60006133a082612984565b6133aa818561338a565b93506133ba8185602086016129a0565b80840191505092915050565b60006133d28284613395565b915081905092915050565b7f596f752063616e277420646f207468697320616374696f6e0000000000000000600082015250565b600061341360188361298f565b915061341e826133dd565b602082019050919050565b6000602082019050818103600083015261344281613406565b9050919050565b7f4f6e6c79206f776e65722063616e20646f207468697320616374696f6e000000600082015250565b600061347f601d8361298f565b915061348a82613449565b602082019050919050565b600060208201905081810360008301526134ae81613472565b9050919050565b7f5573657220697320616c72656164792061206d616e6167657200000000000000600082015250565b60006134eb60198361298f565b91506134f6826134b5565b602082019050919050565b6000602082019050818103600083015261351a816134de565b9050919050565b600061352c826125f0565b9150613537836125f0565b92508282101561354a57613549613312565b5b828203905092915050565b7f4e487b7100000000000000000000000000000000000000000000000000000000600052602260045260246000fd5b6000600282049050600182168061359c57607f821691505b602082108114156135b0576135af613555565b5b50919050565b7f5365656d73206c696b652066696c6d20646f65736e2774206578697374000000600082015250565b60006135ec601d8361298f565b91506135f7826135b6565b602082019050919050565b6000602082019050818103600083015261361b816135df565b9050919050565b7f55736572206973206e6f742061206d616e616765720000000000000000000000600082015250565b600061365860158361298f565b915061366382613622565b602082019050919050565b600060208201905081810360008301526136878161364b565b9050919050565b7f416464726573732030206973206e6f7420612076616c6964206164647265737360008201527f20666f722061206d616e61676572000000000000000000000000000000000000602082015250565b60006136ea602e8361298f565b91506136f58261368e565b604082019050919050565b60006020820190508181036000830152613719816136dd565b9050919050565b7f4e487b7100000000000000000000000000000000000000000000000000000000600052603160045260246000fd5b600081905092915050565b50565b600061376a60008361374f565b91506137758261375a565b600082019050919050565b600061378b8261375d565b9150819050919050565b7f5075726368617365206973206661696c65640000000000000000000000000000600082015250565b60006137cb60128361298f565b91506137d682613795565b602082019050919050565b600060208201905081810360008301526137fa816137be565b9050919050565b600061380c826125f0565b9150613817836125f0565b9250827fffffffffffffffffffffffffffffffffffffffffffffffffffffffffffffffff0382111561384c5761384b613312565b5b828201905092915050565b7f546f74616c20707269636520697320696e636f72726563740000000000000000600082015250565b600061388d60188361298f565b915061389882613857565b602082019050919050565b600060208201905081810360008301526138bc81613880565b9050919050565b60006138ce826125f0565b91506138d9836125f0565b9250817fffffffffffffffffffffffffffffffffffffffffffffffffffffffffffffffff048311821515161561391257613911613312565b5b828202905092915050565b7f5469636b6574206973206e6f7420617661696c61626c65000000000000000000600082015250565b600061395360178361298f565b915061395e8261391d565b602082019050919050565b6000602082019050818103600083015261398281613946565b905091905056fea264697066735822122058a25b4b55e8a93696d2189647ea0f2211955e24cb49e4b03acc5541fb61e21764736f6c634300080a0033",
  "linkReferences": {},
  "deployedLinkReferences": {}
}