{
  "_format": "hh-sol-artifact-1",
  "contractName": "TicketNFT",
  "sourceName": "contracts/TicketNft.sol",
  "abi": [
    {
      "inputs": [],
      "stateMutability": "nonpayable",
      "type": "constructor"
    },
    {
      "anonymous": false,
      "inputs": [
        {
          "indexed": true,
          "internalType": "address",
          "name": "owner",
          "type": "address"
        },
        {
          "indexed": true,
          "internalType": "address",
          "name": "approved",
          "type": "address"
        },
        {
          "indexed": true,
          "internalType": "uint256",
          "name": "tokenId",
          "type": "uint256"
        }
      ],
      "name": "Approval",
      "type": "event"
    },
    {
      "anonymous": false,
      "inputs": [
        {
          "indexed": true,
          "internalType": "address",
          "name": "owner",
          "type": "address"
        },
        {
          "indexed": true,
          "internalType": "address",
          "name": "operator",
          "type": "address"
        },
        {
          "indexed": false,
          "internalType": "bool",
          "name": "approved",
          "type": "bool"
        }
      ],
      "name": "ApprovalForAll",
      "type": "event"
    },
    {
      "anonymous": false,
      "inputs": [
        {
          "indexed": true,
          "internalType": "address",
          "name": "previousOwner",
          "type": "address"
        },
        {
          "indexed": true,
          "internalType": "address",
          "name": "newOwner",
          "type": "address"
        }
      ],
      "name": "OwnershipTransferred",
      "type": "event"
    },
    {
      "anonymous": false,
      "inputs": [
        {
          "indexed": true,
          "internalType": "address",
          "name": "from",
          "type": "address"
        },
        {
          "indexed": true,
          "internalType": "address",
          "name": "to",
          "type": "address"
        },
        {
          "indexed": true,
          "internalType": "uint256",
          "name": "tokenId",
          "type": "uint256"
        }
      ],
      "name": "Transfer",
      "type": "event"
    },
    {
      "inputs": [
        {
          "internalType": "address",
          "name": "to",
          "type": "address"
        },
        {
          "internalType": "uint256",
          "name": "tokenId",
          "type": "uint256"
        }
      ],
      "name": "approve",
      "outputs": [],
      "stateMutability": "nonpayable",
      "type": "function"
    },
    {
      "inputs": [
        {
          "internalType": "address",
          "name": "owner",
          "type": "address"
        }
      ],
      "name": "balanceOf",
      "outputs": [
        {
          "internalType": "uint256",
          "name": "",
          "type": "uint256"
        }
      ],
      "stateMutability": "view",
      "type": "function"
    },
    {
      "inputs": [
        {
          "internalType": "uint256",
          "name": "tokenId",
          "type": "uint256"
        }
      ],
      "name": "getApproved",
      "outputs": [
        {
          "internalType": "address",
          "name": "",
          "type": "address"
        }
      ],
      "stateMutability": "view",
      "type": "function"
    },
    {
      "inputs": [
        {
          "internalType": "address",
          "name": "owner",
          "type": "address"
        },
        {
          "internalType": "address",
          "name": "operator",
          "type": "address"
        }
      ],
      "name": "isApprovedForAll",
      "outputs": [
        {
          "internalType": "bool",
          "name": "",
          "type": "bool"
        }
      ],
      "stateMutability": "view",
      "type": "function"
    },
    {
      "inputs": [
        {
          "internalType": "address",
          "name": "user",
          "type": "address"
        }
      ],
      "name": "mintsByUser",
      "outputs": [
        {
          "components": [
            {
              "internalType": "uint256",
              "name": "ticket_id",
              "type": "uint256"
            },
            {
              "internalType": "uint256",
              "name": "token_id",
              "type": "uint256"
            }
          ],
          "internalType": "struct TicketNFT.minted_ticket[]",
          "name": "",
          "type": "tuple[]"
        }
      ],
      "stateMutability": "view",
      "type": "function"
    },
    {
      "inputs": [],
      "name": "name",
      "outputs": [
        {
          "internalType": "string",
          "name": "",
          "type": "string"
        }
      ],
      "stateMutability": "view",
      "type": "function"
    },
    {
      "inputs": [],
      "name": "owner",
      "outputs": [
        {
          "internalType": "address",
          "name": "",
          "type": "address"
        }
      ],
      "stateMutability": "view",
      "type": "function"
    },
    {
      "inputs": [
        {
          "internalType": "uint256",
          "name": "tokenId",
          "type": "uint256"
        }
      ],
      "name": "ownerOf",
      "outputs": [
        {
          "internalType": "address",
          "name": "",
          "type": "address"
        }
      ],
      "stateMutability": "view",
      "type": "function"
    },
    {
      "inputs": [],
      "name": "renounceOwnership",
      "outputs": [],
      "stateMutability": "nonpayable",
      "type": "function"
    },
    {
      "inputs": [
        {
          "internalType": "address",
          "name": "to",
          "type": "address"
        },
        {
          "internalType": "uint256",
          "name": "ticket_id",
          "type": "uint256"
        },
        {
          "internalType": "string",
          "name": "uri",
          "type": "string"
        }
      ],
      "name": "safeMint",
      "outputs": [],
      "stateMutability": "nonpayable",
      "type": "function"
    },
    {
      "inputs": [
        {
          "internalType": "address",
          "name": "from",
          "type": "address"
        },
        {
          "internalType": "address",
          "name": "to",
          "type": "address"
        },
        {
          "internalType": "uint256",
          "name": "tokenId",
          "type": "uint256"
        }
      ],
      "name": "safeTransferFrom",
      "outputs": [],
      "stateMutability": "nonpayable",
      "type": "function"
    },
    {
      "inputs": [
        {
          "internalType": "address",
          "name": "from",
          "type": "address"
        },
        {
          "internalType": "address",
          "name": "to",
          "type": "address"
        },
        {
          "internalType": "uint256",
          "name": "tokenId",
          "type": "uint256"
        },
        {
          "internalType": "bytes",
          "name": "data",
          "type": "bytes"
        }
      ],
      "name": "safeTransferFrom",
      "outputs": [],
      "stateMutability": "nonpayable",
      "type": "function"
    },
    {
      "inputs": [
        {
          "internalType": "address",
          "name": "operator",
          "type": "address"
        },
        {
          "internalType": "bool",
          "name": "approved",
          "type": "bool"
        }
      ],
      "name": "setApprovalForAll",
      "outputs": [],
      "stateMutability": "nonpayable",
      "type": "function"
    },
    {
      "inputs": [
        {
          "internalType": "bytes4",
          "name": "interfaceId",
          "type": "bytes4"
        }
      ],
      "name": "supportsInterface",
      "outputs": [
        {
          "internalType": "bool",
          "name": "",
          "type": "bool"
        }
      ],
      "stateMutability": "view",
      "type": "function"
    },
    {
      "inputs": [],
      "name": "symbol",
      "outputs": [
        {
          "internalType": "string",
          "name": "",
          "type": "string"
        }
      ],
      "stateMutability": "view",
      "type": "function"
    },
    {
      "inputs": [
        {
          "internalType": "uint256",
          "name": "tokenId",
          "type": "uint256"
        }
      ],
      "name": "tokenURI",
      "outputs": [
        {
          "internalType": "string",
          "name": "",
          "type": "string"
        }
      ],
      "stateMutability": "view",
      "type": "function"
    },
    {
      "inputs": [
        {
          "internalType": "address",
          "name": "from",
          "type": "address"
        },
        {
          "internalType": "address",
          "name": "to",
          "type": "address"
        },
        {
          "internalType": "uint256",
          "name": "tokenId",
          "type": "uint256"
        }
      ],
      "name": "transferFrom",
      "outputs": [],
      "stateMutability": "nonpayable",
      "type": "function"
    },
    {
      "inputs": [
        {
          "internalType": "address",
          "name": "newOwner",
          "type": "address"
        }
      ],
      "name": "transferOwnership",
      "outputs": [],
      "stateMutability": "nonpayable",
      "type": "function"
    }
  ],
  "bytecode": "0x60806040523480156200001157600080fd5b506040518060400160405280600881526020017f43494e454d4154430000000000000000000000000000000000000000000000008152506040518060400160405280600581526020017f434e4d5443000000000000000000000000000000000000000000000000000000815250816000908051906020019062000096929190620001a6565b508060019080519060200190620000af929190620001a6565b505050620000d2620000c6620000d860201b60201c565b620000e060201b60201c565b620002bb565b600033905090565b6000600760009054906101000a900473ffffffffffffffffffffffffffffffffffffffff16905081600760006101000a81548173ffffffffffffffffffffffffffffffffffffffff021916908373ffffffffffffffffffffffffffffffffffffffff1602179055508173ffffffffffffffffffffffffffffffffffffffff168173ffffffffffffffffffffffffffffffffffffffff167f8be0079c531659141344cd1fd0a4f28419497f9722a3daafe3b4186f6b6457e060405160405180910390a35050565b828054620001b49062000285565b90600052602060002090601f016020900481019282620001d8576000855562000224565b82601f10620001f357805160ff191683800117855562000224565b8280016001018555821562000224579182015b828111156200022357825182559160200191906001019062000206565b5b50905062000233919062000237565b5090565b5b808211156200025257600081600090555060010162000238565b5090565b7f4e487b7100000000000000000000000000000000000000000000000000000000600052602260045260246000fd5b600060028204905060018216806200029e57607f821691505b60208210811415620002b557620002b462000256565b5b50919050565b61314680620002cb6000396000f3fe608060405234801561001057600080fd5b50600436106101165760003560e01c80638da5cb5b116100a2578063bb76f8f911610071578063bb76f8f9146102cb578063c87b56dd146102fb578063cd279c7c1461032b578063e985e9c514610347578063f2fde38b1461037757610116565b80638da5cb5b1461025757806395d89b4114610275578063a22cb46514610293578063b88d4fde146102af57610116565b806323b872dd116100e957806323b872dd146101b557806342842e0e146101d15780636352211e146101ed57806370a082311461021d578063715018a61461024d57610116565b806301ffc9a71461011b57806306fdde031461014b578063081812fc14610169578063095ea7b314610199575b600080fd5b61013560048036038101906101309190611f64565b610393565b6040516101429190611fac565b60405180910390f35b610153610475565b6040516101609190612060565b60405180910390f35b610183600480360381019061017e91906120b8565b610507565b6040516101909190612126565b60405180910390f35b6101b360048036038101906101ae919061216d565b61054d565b005b6101cf60048036038101906101ca91906121ad565b610665565b005b6101eb60048036038101906101e691906121ad565b6106c5565b005b610207600480360381019061020291906120b8565b6106e5565b6040516102149190612126565b60405180910390f35b61023760048036038101906102329190612200565b61076c565b604051610244919061223c565b60405180910390f35b610255610824565b005b61025f610838565b60405161026c9190612126565b60405180910390f35b61027d610862565b60405161028a9190612060565b60405180910390f35b6102ad60048036038101906102a89190612283565b6108f4565b005b6102c960048036038101906102c491906123f8565b61090a565b005b6102e560048036038101906102e09190612200565b61096c565b6040516102f29190612568565b60405180910390f35b610315600480360381019061031091906120b8565b610a1e565b6040516103229190612060565b60405180910390f35b6103456004803603810190610340919061262b565b610a30565b005b610361600480360381019061035c919061269a565b610b63565b60405161036e9190611fac565b60405180910390f35b610391600480360381019061038c9190612200565b610bf7565b005b60007f80ac58cd000000000000000000000000000000000000000000000000000000007bffffffffffffffffffffffffffffffffffffffffffffffffffffffff1916827bffffffffffffffffffffffffffffffffffffffffffffffffffffffff1916148061045e57507f5b5e139f000000000000000000000000000000000000000000000000000000007bffffffffffffffffffffffffffffffffffffffffffffffffffffffff1916827bffffffffffffffffffffffffffffffffffffffffffffffffffffffff1916145b8061046e575061046d82610c7b565b5b9050919050565b60606000805461048490612709565b80601f01602080910402602001604051908101604052809291908181526020018280546104b090612709565b80156104fd5780601f106104d2576101008083540402835291602001916104fd565b820191906000526020600020905b8154815290600101906020018083116104e057829003601f168201915b5050505050905090565b600061051282610ce5565b6004600083815260200190815260200160002060009054906101000a900473ffffffffffffffffffffffffffffffffffffffff169050919050565b6000610558826106e5565b90508073ffffffffffffffffffffffffffffffffffffffff168373ffffffffffffffffffffffffffffffffffffffff1614156105c9576040517f08c379a00000000000000000000000000000000000000000000000000000000081526004016105c0906127ad565b60405180910390fd5b8073ffffffffffffffffffffffffffffffffffffffff166105e8610d30565b73ffffffffffffffffffffffffffffffffffffffff161480610617575061061681610611610d30565b610b63565b5b610656576040517f08c379a000000000000000000000000000000000000000000000000000000000815260040161064d9061283f565b60405180910390fd5b6106608383610d38565b505050565b610676610670610d30565b82610df1565b6106b5576040517f08c379a00000000000000000000000000000000000000000000000000000000081526004016106ac906128d1565b60405180910390fd5b6106c0838383610e86565b505050565b6106e08383836040518060200160405280600081525061090a565b505050565b6000806106f183611180565b9050600073ffffffffffffffffffffffffffffffffffffffff168173ffffffffffffffffffffffffffffffffffffffff161415610763576040517f08c379a000000000000000000000000000000000000000000000000000000000815260040161075a9061293d565b60405180910390fd5b80915050919050565b60008073ffffffffffffffffffffffffffffffffffffffff168273ffffffffffffffffffffffffffffffffffffffff1614156107dd576040517f08c379a00000000000000000000000000000000000000000000000000000000081526004016107d4906129cf565b60405180910390fd5b600360008373ffffffffffffffffffffffffffffffffffffffff1673ffffffffffffffffffffffffffffffffffffffff168152602001908152602001600020549050919050565b61082c6111bd565b610836600061123b565b565b6000600760009054906101000a900473ffffffffffffffffffffffffffffffffffffffff16905090565b60606001805461087190612709565b80601f016020809104026020016040519081016040528092919081815260200182805461089d90612709565b80156108ea5780601f106108bf576101008083540402835291602001916108ea565b820191906000526020600020905b8154815290600101906020018083116108cd57829003601f168201915b5050505050905090565b6109066108ff610d30565b8383611301565b5050565b61091b610915610d30565b83610df1565b61095a576040517f08c379a0000000000000000000000000000000000000000000000000000000008152600401610951906128d1565b60405180910390fd5b6109668484848461146e565b50505050565b6060600960008373ffffffffffffffffffffffffffffffffffffffff1673ffffffffffffffffffffffffffffffffffffffff168152602001908152602001600020805480602002602001604051908101604052809291908181526020016000905b82821015610a13578382906000526020600020906002020160405180604001604052908160008201548152602001600182015481525050815260200190600101906109cd565b505050509050919050565b6060610a29826114ca565b9050919050565b3373ffffffffffffffffffffffffffffffffffffffff168373ffffffffffffffffffffffffffffffffffffffff1614610a9e576040517f08c379a0000000000000000000000000000000000000000000000000000000008152600401610a9590612a3b565b60405180910390fd5b610aa860086115dd565b6000610ab460086115f3565b9050610ac08482611601565b610aca818361181f565b600960008573ffffffffffffffffffffffffffffffffffffffff1673ffffffffffffffffffffffffffffffffffffffff16815260200190815260200160002060405180604001604052808581526020018381525090806001815401808255809150506001900390600052602060002090600202016000909190919091506000820151816000015560208201518160010155505050505050565b6000600560008473ffffffffffffffffffffffffffffffffffffffff1673ffffffffffffffffffffffffffffffffffffffff16815260200190815260200160002060008373ffffffffffffffffffffffffffffffffffffffff1673ffffffffffffffffffffffffffffffffffffffff16815260200190815260200160002060009054906101000a900460ff16905092915050565b610bff6111bd565b600073ffffffffffffffffffffffffffffffffffffffff168173ffffffffffffffffffffffffffffffffffffffff161415610c6f576040517f08c379a0000000000000000000000000000000000000000000000000000000008152600401610c6690612acd565b60405180910390fd5b610c788161123b565b50565b60007f01ffc9a7000000000000000000000000000000000000000000000000000000007bffffffffffffffffffffffffffffffffffffffffffffffffffffffff1916827bffffffffffffffffffffffffffffffffffffffffffffffffffffffff1916149050919050565b610cee81611893565b610d2d576040517f08c379a0000000000000000000000000000000000000000000000000000000008152600401610d249061293d565b60405180910390fd5b50565b600033905090565b816004600083815260200190815260200160002060006101000a81548173ffffffffffffffffffffffffffffffffffffffff021916908373ffffffffffffffffffffffffffffffffffffffff160217905550808273ffffffffffffffffffffffffffffffffffffffff16610dab836106e5565b73ffffffffffffffffffffffffffffffffffffffff167f8c5be1e5ebec7d5bd14f71427d1e84f3dd0314c0f7b2291e5b200ac8c7c3b92560405160405180910390a45050565b600080610dfd836106e5565b90508073ffffffffffffffffffffffffffffffffffffffff168473ffffffffffffffffffffffffffffffffffffffff161480610e3f5750610e3e8185610b63565b5b80610e7d57508373ffffffffffffffffffffffffffffffffffffffff16610e6584610507565b73ffffffffffffffffffffffffffffffffffffffff16145b91505092915050565b8273ffffffffffffffffffffffffffffffffffffffff16610ea6826106e5565b73ffffffffffffffffffffffffffffffffffffffff1614610efc576040517f08c379a0000000000000000000000000000000000000000000000000000000008152600401610ef390612b5f565b60405180910390fd5b600073ffffffffffffffffffffffffffffffffffffffff168273ffffffffffffffffffffffffffffffffffffffff161415610f6c576040517f08c379a0000000000000000000000000000000000000000000000000000000008152600401610f6390612bf1565b60405180910390fd5b610f7983838360016118d4565b8273ffffffffffffffffffffffffffffffffffffffff16610f99826106e5565b73ffffffffffffffffffffffffffffffffffffffff1614610fef576040517f08c379a0000000000000000000000000000000000000000000000000000000008152600401610fe690612b5f565b60405180910390fd5b6004600082815260200190815260200160002060006101000a81549073ffffffffffffffffffffffffffffffffffffffff02191690556001600360008573ffffffffffffffffffffffffffffffffffffffff1673ffffffffffffffffffffffffffffffffffffffff168152602001908152602001600020600082825403925050819055506001600360008473ffffffffffffffffffffffffffffffffffffffff1673ffffffffffffffffffffffffffffffffffffffff16815260200190815260200160002060008282540192505081905550816002600083815260200190815260200160002060006101000a81548173ffffffffffffffffffffffffffffffffffffffff021916908373ffffffffffffffffffffffffffffffffffffffff160217905550808273ffffffffffffffffffffffffffffffffffffffff168473ffffffffffffffffffffffffffffffffffffffff167fddf252ad1be2c89b69c2b068fc378daa952ba7f163c4a11628f55a4df523b3ef60405160405180910390a461117b83838360016119fa565b505050565b60006002600083815260200190815260200160002060009054906101000a900473ffffffffffffffffffffffffffffffffffffffff169050919050565b6111c5610d30565b73ffffffffffffffffffffffffffffffffffffffff166111e3610838565b73ffffffffffffffffffffffffffffffffffffffff1614611239576040517f08c379a000000000000000000000000000000000000000000000000000000000815260040161123090612c5d565b60405180910390fd5b565b6000600760009054906101000a900473ffffffffffffffffffffffffffffffffffffffff16905081600760006101000a81548173ffffffffffffffffffffffffffffffffffffffff021916908373ffffffffffffffffffffffffffffffffffffffff1602179055508173ffffffffffffffffffffffffffffffffffffffff168173ffffffffffffffffffffffffffffffffffffffff167f8be0079c531659141344cd1fd0a4f28419497f9722a3daafe3b4186f6b6457e060405160405180910390a35050565b8173ffffffffffffffffffffffffffffffffffffffff168373ffffffffffffffffffffffffffffffffffffffff161415611370576040517f08c379a000000000000000000000000000000000000000000000000000000000815260040161136790612cc9565b60405180910390fd5b80600560008573ffffffffffffffffffffffffffffffffffffffff1673ffffffffffffffffffffffffffffffffffffffff16815260200190815260200160002060008473ffffffffffffffffffffffffffffffffffffffff1673ffffffffffffffffffffffffffffffffffffffff16815260200190815260200160002060006101000a81548160ff0219169083151502179055508173ffffffffffffffffffffffffffffffffffffffff168373ffffffffffffffffffffffffffffffffffffffff167f17307eab39ab6107e8899845ad3d59bd9653f200f220920489ca2b5937696c31836040516114619190611fac565b60405180910390a3505050565b611479848484610e86565b61148584848484611a00565b6114c4576040517f08c379a00000000000000000000000000000000000000000000000000000000081526004016114bb90612d5b565b60405180910390fd5b50505050565b60606114d582610ce5565b60006006600084815260200190815260200160002080546114f590612709565b80601f016020809104026020016040519081016040528092919081815260200182805461152190612709565b801561156e5780601f106115435761010080835404028352916020019161156e565b820191906000526020600020905b81548152906001019060200180831161155157829003601f168201915b50505050509050600061157f611b88565b90506000815114156115955781925050506115d8565b6000825111156115ca5780826040516020016115b2929190612db7565b604051602081830303815290604052925050506115d8565b6115d384611b9f565b925050505b919050565b6001816000016000828254019250508190555050565b600081600001549050919050565b600073ffffffffffffffffffffffffffffffffffffffff168273ffffffffffffffffffffffffffffffffffffffff161415611671576040517f08c379a000000000000000000000000000000000000000000000000000000000815260040161166890612e27565b60405180910390fd5b61167a81611893565b156116ba576040517f08c379a00000000000000000000000000000000000000000000000000000000081526004016116b190612e93565b60405180910390fd5b6116c86000838360016118d4565b6116d181611893565b15611711576040517f08c379a000000000000000000000000000000000000000000000000000000000815260040161170890612e93565b60405180910390fd5b6001600360008473ffffffffffffffffffffffffffffffffffffffff1673ffffffffffffffffffffffffffffffffffffffff16815260200190815260200160002060008282540192505081905550816002600083815260200190815260200160002060006101000a81548173ffffffffffffffffffffffffffffffffffffffff021916908373ffffffffffffffffffffffffffffffffffffffff160217905550808273ffffffffffffffffffffffffffffffffffffffff16600073ffffffffffffffffffffffffffffffffffffffff167fddf252ad1be2c89b69c2b068fc378daa952ba7f163c4a11628f55a4df523b3ef60405160405180910390a461181b6000838360016119fa565b5050565b61182882611893565b611867576040517f08c379a000000000000000000000000000000000000000000000000000000000815260040161185e90612f25565b60405180910390fd5b8060066000848152602001908152602001600020908051906020019061188e929190611e55565b505050565b60008073ffffffffffffffffffffffffffffffffffffffff166118b583611180565b73ffffffffffffffffffffffffffffffffffffffff1614159050919050565b60018111156119f457600073ffffffffffffffffffffffffffffffffffffffff168473ffffffffffffffffffffffffffffffffffffffff16146119685780600360008673ffffffffffffffffffffffffffffffffffffffff1673ffffffffffffffffffffffffffffffffffffffff16815260200190815260200160002060008282546119609190612f74565b925050819055505b600073ffffffffffffffffffffffffffffffffffffffff168373ffffffffffffffffffffffffffffffffffffffff16146119f35780600360008573ffffffffffffffffffffffffffffffffffffffff1673ffffffffffffffffffffffffffffffffffffffff16815260200190815260200160002060008282546119eb9190612fa8565b925050819055505b5b50505050565b50505050565b6000611a218473ffffffffffffffffffffffffffffffffffffffff16611c07565b15611b7b578373ffffffffffffffffffffffffffffffffffffffff1663150b7a02611a4a610d30565b8786866040518563ffffffff1660e01b8152600401611a6c9493929190613053565b6020604051808303816000875af1925050508015611aa857506040513d601f19601f82011682018060405250810190611aa591906130b4565b60015b611b2b573d8060008114611ad8576040519150601f19603f3d011682016040523d82523d6000602084013e611add565b606091505b50600081511415611b23576040517f08c379a0000000000000000000000000000000000000000000000000000000008152600401611b1a90612d5b565b60405180910390fd5b805181602001fd5b63150b7a0260e01b7bffffffffffffffffffffffffffffffffffffffffffffffffffffffff1916817bffffffffffffffffffffffffffffffffffffffffffffffffffffffff191614915050611b80565b600190505b949350505050565b606060405180602001604052806000815250905090565b6060611baa82610ce5565b6000611bb4611b88565b90506000815111611bd45760405180602001604052806000815250611bff565b80611bde84611c2a565b604051602001611bef929190612db7565b6040516020818303038152906040525b915050919050565b6000808273ffffffffffffffffffffffffffffffffffffffff163b119050919050565b606060006001611c3984611d02565b01905060008167ffffffffffffffff811115611c5857611c576122cd565b5b6040519080825280601f01601f191660200182016040528015611c8a5781602001600182028036833780820191505090505b509050600082602001820190505b600115611cf7578080600190039150507f3031323334353637383961626364656600000000000000000000000000000000600a86061a8153600a8581611ce157611ce06130e1565b5b0494506000851415611cf257611cf7565b611c98565b819350505050919050565b600080600090507a184f03e93ff9f4daa797ed6e38ed64bf6a1f0100000000000000008310611d60577a184f03e93ff9f4daa797ed6e38ed64bf6a1f0100000000000000008381611d5657611d556130e1565b5b0492506040810190505b6d04ee2d6d415b85acef81000000008310611d9d576d04ee2d6d415b85acef81000000008381611d9357611d926130e1565b5b0492506020810190505b662386f26fc100008310611dcc57662386f26fc100008381611dc257611dc16130e1565b5b0492506010810190505b6305f5e1008310611df5576305f5e1008381611deb57611dea6130e1565b5b0492506008810190505b6127108310611e1a576127108381611e1057611e0f6130e1565b5b0492506004810190505b60648310611e3d5760648381611e3357611e326130e1565b5b0492506002810190505b600a8310611e4c576001810190505b80915050919050565b828054611e6190612709565b90600052602060002090601f016020900481019282611e835760008555611eca565b82601f10611e9c57805160ff1916838001178555611eca565b82800160010185558215611eca579182015b82811115611ec9578251825591602001919060010190611eae565b5b509050611ed79190611edb565b5090565b5b80821115611ef4576000816000905550600101611edc565b5090565b6000604051905090565b600080fd5b600080fd5b60007fffffffff0000000000000000000000000000000000000000000000000000000082169050919050565b611f4181611f0c565b8114611f4c57600080fd5b50565b600081359050611f5e81611f38565b92915050565b600060208284031215611f7a57611f79611f02565b5b6000611f8884828501611f4f565b91505092915050565b60008115159050919050565b611fa681611f91565b82525050565b6000602082019050611fc16000830184611f9d565b92915050565b600081519050919050565b600082825260208201905092915050565b60005b83811015612001578082015181840152602081019050611fe6565b83811115612010576000848401525b50505050565b6000601f19601f8301169050919050565b600061203282611fc7565b61203c8185611fd2565b935061204c818560208601611fe3565b61205581612016565b840191505092915050565b6000602082019050818103600083015261207a8184612027565b905092915050565b6000819050919050565b61209581612082565b81146120a057600080fd5b50565b6000813590506120b28161208c565b92915050565b6000602082840312156120ce576120cd611f02565b5b60006120dc848285016120a3565b91505092915050565b600073ffffffffffffffffffffffffffffffffffffffff82169050919050565b6000612110826120e5565b9050919050565b61212081612105565b82525050565b600060208201905061213b6000830184612117565b92915050565b61214a81612105565b811461215557600080fd5b50565b60008135905061216781612141565b92915050565b6000806040838503121561218457612183611f02565b5b600061219285828601612158565b92505060206121a3858286016120a3565b9150509250929050565b6000806000606084860312156121c6576121c5611f02565b5b60006121d486828701612158565b93505060206121e586828701612158565b92505060406121f6868287016120a3565b9150509250925092565b60006020828403121561221657612215611f02565b5b600061222484828501612158565b91505092915050565b61223681612082565b82525050565b6000602082019050612251600083018461222d565b92915050565b61226081611f91565b811461226b57600080fd5b50565b60008135905061227d81612257565b92915050565b6000806040838503121561229a57612299611f02565b5b60006122a885828601612158565b92505060206122b98582860161226e565b9150509250929050565b600080fd5b600080fd5b7f4e487b7100000000000000000000000000000000000000000000000000000000600052604160045260246000fd5b61230582612016565b810181811067ffffffffffffffff82111715612324576123236122cd565b5b80604052505050565b6000612337611ef8565b905061234382826122fc565b919050565b600067ffffffffffffffff821115612363576123626122cd565b5b61236c82612016565b9050602081019050919050565b82818337600083830152505050565b600061239b61239684612348565b61232d565b9050828152602081018484840111156123b7576123b66122c8565b5b6123c2848285612379565b509392505050565b600082601f8301126123df576123de6122c3565b5b81356123ef848260208601612388565b91505092915050565b6000806000806080858703121561241257612411611f02565b5b600061242087828801612158565b945050602061243187828801612158565b9350506040612442878288016120a3565b925050606085013567ffffffffffffffff81111561246357612462611f07565b5b61246f878288016123ca565b91505092959194509250565b600081519050919050565b600082825260208201905092915050565b6000819050602082019050919050565b6124b081612082565b82525050565b6040820160008201516124cc60008501826124a7565b5060208201516124df60208501826124a7565b50505050565b60006124f183836124b6565b60408301905092915050565b6000602082019050919050565b60006125158261247b565b61251f8185612486565b935061252a83612497565b8060005b8381101561255b57815161254288826124e5565b975061254d836124fd565b92505060018101905061252e565b5085935050505092915050565b60006020820190508181036000830152612582818461250a565b905092915050565b600067ffffffffffffffff8211156125a5576125a46122cd565b5b6125ae82612016565b9050602081019050919050565b60006125ce6125c98461258a565b61232d565b9050828152602081018484840111156125ea576125e96122c8565b5b6125f5848285612379565b509392505050565b600082601f830112612612576126116122c3565b5b81356126228482602086016125bb565b91505092915050565b60008060006060848603121561264457612643611f02565b5b600061265286828701612158565b9350506020612663868287016120a3565b925050604084013567ffffffffffffffff81111561268457612683611f07565b5b612690868287016125fd565b9150509250925092565b600080604083850312156126b1576126b0611f02565b5b60006126bf85828601612158565b92505060206126d085828601612158565b9150509250929050565b7f4e487b7100000000000000000000000000000000000000000000000000000000600052602260045260246000fd5b6000600282049050600182168061272157607f821691505b60208210811415612735576127346126da565b5b50919050565b7f4552433732313a20617070726f76616c20746f2063757272656e74206f776e6560008201527f7200000000000000000000000000000000000000000000000000000000000000602082015250565b6000612797602183611fd2565b91506127a28261273b565b604082019050919050565b600060208201905081810360008301526127c68161278a565b9050919050565b7f4552433732313a20617070726f76652063616c6c6572206973206e6f7420746f60008201527f6b656e206f776e6572206f7220617070726f76656420666f7220616c6c000000602082015250565b6000612829603d83611fd2565b9150612834826127cd565b604082019050919050565b600060208201905081810360008301526128588161281c565b9050919050565b7f4552433732313a2063616c6c6572206973206e6f7420746f6b656e206f776e6560008201527f72206f7220617070726f76656400000000000000000000000000000000000000602082015250565b60006128bb602d83611fd2565b91506128c68261285f565b604082019050919050565b600060208201905081810360008301526128ea816128ae565b9050919050565b7f4552433732313a20696e76616c696420746f6b656e2049440000000000000000600082015250565b6000612927601883611fd2565b9150612932826128f1565b602082019050919050565b600060208201905081810360008301526129568161291a565b9050919050565b7f4552433732313a2061646472657373207a65726f206973206e6f74206120766160008201527f6c6964206f776e65720000000000000000000000000000000000000000000000602082015250565b60006129b9602983611fd2565b91506129c48261295d565b604082019050919050565b600060208201905081810360008301526129e8816129ac565b9050919050565b7f596f752063616e2774206d696e742074686973204e4654000000000000000000600082015250565b6000612a25601783611fd2565b9150612a30826129ef565b602082019050919050565b60006020820190508181036000830152612a5481612a18565b9050919050565b7f4f776e61626c653a206e6577206f776e657220697320746865207a65726f206160008201527f6464726573730000000000000000000000000000000000000000000000000000602082015250565b6000612ab7602683611fd2565b9150612ac282612a5b565b604082019050919050565b60006020820190508181036000830152612ae681612aaa565b9050919050565b7f4552433732313a207472616e736665722066726f6d20696e636f72726563742060008201527f6f776e6572000000000000000000000000000000000000000000000000000000602082015250565b6000612b49602583611fd2565b9150612b5482612aed565b604082019050919050565b60006020820190508181036000830152612b7881612b3c565b9050919050565b7f4552433732313a207472616e7366657220746f20746865207a65726f2061646460008201527f7265737300000000000000000000000000000000000000000000000000000000602082015250565b6000612bdb602483611fd2565b9150612be682612b7f565b604082019050919050565b60006020820190508181036000830152612c0a81612bce565b9050919050565b7f4f776e61626c653a2063616c6c6572206973206e6f7420746865206f776e6572600082015250565b6000612c47602083611fd2565b9150612c5282612c11565b602082019050919050565b60006020820190508181036000830152612c7681612c3a565b9050919050565b7f4552433732313a20617070726f766520746f2063616c6c657200000000000000600082015250565b6000612cb3601983611fd2565b9150612cbe82612c7d565b602082019050919050565b60006020820190508181036000830152612ce281612ca6565b9050919050565b7f4552433732313a207472616e7366657220746f206e6f6e20455243373231526560008201527f63656976657220696d706c656d656e7465720000000000000000000000000000602082015250565b6000612d45603283611fd2565b9150612d5082612ce9565b604082019050919050565b60006020820190508181036000830152612d7481612d38565b9050919050565b600081905092915050565b6000612d9182611fc7565b612d9b8185612d7b565b9350612dab818560208601611fe3565b80840191505092915050565b6000612dc38285612d86565b9150612dcf8284612d86565b91508190509392505050565b7f4552433732313a206d696e7420746f20746865207a65726f2061646472657373600082015250565b6000612e11602083611fd2565b9150612e1c82612ddb565b602082019050919050565b60006020820190508181036000830152612e4081612e04565b9050919050565b7f4552433732313a20746f6b656e20616c7265616479206d696e74656400000000600082015250565b6000612e7d601c83611fd2565b9150612e8882612e47565b602082019050919050565b60006020820190508181036000830152612eac81612e70565b9050919050565b7f45524337323155524953746f726167653a2055524920736574206f66206e6f6e60008201527f6578697374656e7420746f6b656e000000000000000000000000000000000000602082015250565b6000612f0f602e83611fd2565b9150612f1a82612eb3565b604082019050919050565b60006020820190508181036000830152612f3e81612f02565b9050919050565b7f4e487b7100000000000000000000000000000000000000000000000000000000600052601160045260246000fd5b6000612f7f82612082565b9150612f8a83612082565b925082821015612f9d57612f9c612f45565b5b828203905092915050565b6000612fb382612082565b9150612fbe83612082565b9250827fffffffffffffffffffffffffffffffffffffffffffffffffffffffffffffffff03821115612ff357612ff2612f45565b5b828201905092915050565b600081519050919050565b600082825260208201905092915050565b600061302582612ffe565b61302f8185613009565b935061303f818560208601611fe3565b61304881612016565b840191505092915050565b60006080820190506130686000830187612117565b6130756020830186612117565b613082604083018561222d565b8181036060830152613094818461301a565b905095945050505050565b6000815190506130ae81611f38565b92915050565b6000602082840312156130ca576130c9611f02565b5b60006130d88482850161309f565b91505092915050565b7f4e487b7100000000000000000000000000000000000000000000000000000000600052601260045260246000fdfea2646970667358221220b4b4fe6809e7e3051a1b987a102de1737dc59bc728f01d9c3788183f2364b2fa64736f6c634300080a0033",
  "linkReferences": {},
  "deployedLinkReferences": {}
}